:100000000C94F2060C941A070C941A070C941A0715
:100010000C941A070C941A070C941A070C941A07DC
:100020000C941A070C941A070C94370F0C94A60F13
:100030000C941A070C941A070C941A070C941A07BC
:100040000C941A070C941A070C941A070C941A07AC
:100050000C941A070C941A070C941A070C94D811D4
:100060000C941A070C941A070C941A070C941A078C
:100070000C941A070C941A070C941A070C941A077C
:100080000C9422120C941A070C941A070C941A0759
:100090000C941A070C941A070C941A070C941A075C
:1000A0000C941A070C941A070C941A0703081F05DE
:1000B0001F1F151B1F11111F110E1F15111F0501E9
:1000C0001F111D1F041F001F0010101F1F041B1FE6
:1000D00010101F061F1F011F1F111F1F05071F31B3
:1000E0001F1F051B17151D011F011F101F0F100FCC
:1000F0001F0C1F1B041B071C071915130C121E1FB6
:10010000120C1E12120C121F0C1A14041F052E2A98
:100110001E1F021C001D00201D001F041A011F00CD
:100120001E041E1E021E1E121E3E120C0C123E1E2D
:10013000020614120A020F121E101E0E100E1E08C6
:100140001E1A041A2E281E1A12161F111F001F0035
:100150001D151711151F07041F17151D1F151D014C
:10016000011F1F151F17151F001700001000081C86
:1001700008201800080B0002020201000904000018
:100180000102020000052400100105240101010400
:10019000240206052406000107058103100040091A
:1001A000040100020A0000000705020240000007E7
:1001B0000583024000000403090412010002EF025B
:1001C0000140412336800001010203014172647540
:1001D000696E6F204C4C430041726475696E6F20EC
:1001E0004C656F6E6172646F00D5F08D14A1C8818B
:1001F000CFD9F1AF20000C1420283003051F0E04C6
:100200000305040E1F30050E1111110E0000000031
:1002100000000000000000000000000000000000DE
:1002200000000000000000000000000000000000CE
:10023000000000000000000E111111111111111128
:10024000110E00000000000000000000000000008F
:10025000000000000000000000000000000000009E
:10026000000000000000000E1111111111111111F8
:10027000111111111111110E0000000000000000F9
:10028000000000000000000000000000000000006E
:10029000000000000000000E1111111111111111C8
:1002A000111111111111111111111111110E000063
:1002B000000000000000000000000000000000003E
:1002C000000000000000000E111111111111111198
:1002D000111111111111111111111111111111110E
:1002E0001111110E000000000000000000000000CD
:1002F000000000000000000E111111111111111168
:1003000011111111111111111111111111111111DD
:100310001111111111111111110E00000000000036
:10032000000000000000000E111111111111111137
:1003300011111111111111111111111111111111AD
:100340001111111111111111111111111111110EA0
:10035000000000000000000E111111111111111107
:10036000111111111111111111111111111111117D
:10037000111111111111111111111111111111116D
:1003800011111111110E0030050E1115110E000082
:10039000000000000000000000000000000000005D
:1003A000000000000000000000000000000000004D
:1003B0000000000000000000000E111515151515B5
:1003C0001515110E000000000000000000000000E4
:1003D000000000000000000000000000000000001D
:1003E0000000000000000000000E11151515151585
:1003F0001515151515151515110E00000000000036
:1004000000000000000000000000000000000000EC
:100410000000000000000000000E11151515151554
:100420001515151515151515151515151515110E87
:1004300000000000000000000000000000000000BC
:100440000000000000000000000E11151515151524
:10045000151515151515151515151515151515154C
:1004600015151515110E0000000000000000000019
:100470000000000000000000000E111515151515F4
:10048000151515151515151515151515151515151C
:1004900015151515151515151515110E000000006B
:1004A0000000000000000000000E111515151515C4
:1004B00015151515151515151515151515151515EC
:1004C00015151515151515151515151515151515DC
:1004D000110E000000000000000E11151515151575
:1004E00015151515151515151515151515151515BC
:1004F00015151515151515151515151515151515AC
:10050000151515151515110E000E1F1F1F0E0000D5
:1005100000000000000000000000000000000000DB
:1005200000000000000000000000000000000000CB
:100530000000000000000000000E1F1F1F1F1F1FF3
:100540001F1F1F0E00000000000000000000000040
:10055000000000000000000000000000000000009B
:100560000000000000000000000E1F1F1F1F1F1FC3
:100570001F1F1F1F1F1F1F1F1F0E00000000000056
:10058000000000000000000000000000000000006B
:100590000000000000000000000E1F1F1F1F1F1F93
:1005A0001F1F1F1F1F1F1F1F1F1F1F1F1F1F1F0E6C
:1005B000000000000000000000000000000000003B
:1005C0000000000000000000000E1F1F1F1F1F1F63
:1005D0001F1F1F1F1F1F1F1F1F1F1F1F1F1F1F1F2B
:1005E0001F1F1F1F1F0E0000000000000000000062
:1005F0000000000000000000000E1F1F1F1F1F1F33
:100600001F1F1F1F1F1F1F1F1F1F1F1F1F1F1F1FFA
:100610001F1F1F1F1F1F1F1F1F1F1F0E0000000077
:100620000000000000000000000E1F1F1F1F1F1F02
:100630001F1F1F1F1F1F1F1F1F1F1F1F1F1F1F1FCA
:100640001F1F1F1F1F1F1F1F1F1F1F1F1F1F1F1FBA
:100650001F0E000000000000000E1F1F1F1F1F1FA5
:100660001F1F1F1F1F1F1F1F1F1F1F1F1F1F1F1F9A
:100670001F1F1F1F1F1F1F1F1F1F1F1F1F1F1F1F8A
:100680001F1F1F1F1F1F1F0E0030050E1F1F1F0ED5
:10069000000000000000000000000000000000005A
:1006A000000000000000000000000000000000004A
:1006B00000000000000000000000000E1F1F1F1FB0
:1006C0001F1F1F1F1F0E0000000000000000000081
:1006D000000000000000000000000000000000001A
:1006E00000000000000000000000000E1F1F1F1F80
:1006F0001F1F1F1F1F1F1F1F1F1F1F0E0000000097
:1007000000000000000000000000000000000000E9
:1007100000000000000000000000000E1F1F1F1F4F
:100720001F1F1F1F1F1F1F1F1F1F1F1F1F1F1F1FD9
:100730001F0E00000000000000000000000000008C
:1007400000000000000000000000000E1F1F1F1F1F
:100750001F1F1F1F1F1F1F1F1F1F1F1F1F1F1F1FA9
:100760001F1F1F1F1F1F1F0E0000000000000000A2
:1007700000000000000000000000000E1F1F1F1FEF
:100780001F1F1F1F1F1F1F1F1F1F1F1F1F1F1F1F79
:100790001F1F1F1F1F1F1F1F1F1F1F1F1F0E0000B8
:1007A00000000000000000000000000E1F1F1F1FBF
:1007B0001F1F1F1F1F1F1F1F1F1F1F1F1F1F1F1F49
:1007C0001F1F1F1F1F1F1F1F1F1F1F1F1F1F1F1F39
:1007D0001F1F1F0E000000000000000E1F1F1F1F24
:1007E0001F1F1F1F1F1F1F1F1F1F1F1F1F1F1F1F19
:1007F0001F1F1F1F1F1F1F1F1F1F1F1F1F1F1F1F09
:100800001F1F1F1F1F1F1F1F1F0E00FA00C800AF52
:100810000096007D0064004B0032001F002100257F
:100820000029002C00310037003E004100490052F1
:1008300000570062006E007B003E004100490052FC
:1008400000570062006E007B0083009300A500AF9C
:1008500000C400DC00F7007B0083009300A500AF1C
:1008600000C400DC00F700060126014A015D018892
:1008700001B801EE01F700060126014A015D018879
:1008800001B801EE010B024B029302BA0210037091
:1008900003DC03EE010B024B029302BA0210037059
:1008A00003DC0317049704270575052006E006B846
:1008B00007DC0317049704270575052006E006B832
:1008C000072D082D094D0AEA0A400CC00D6F0FB81C
:1008D000072D082D094D0AEA0A400CC00D6F0F5A6A
:1008E000105B129A14D4158018801BDE1E6F0F5AED
:1008F000105B129A14D4158018801BDE1EB420B52C
:10090000243429A72B00310037BC3D804000000073
:1009100000000000000000000000000000000000D7
:1009200000000000000000000000000000000000C7
:1009300000000000000000000000000000000000B7
:1009400000000000000000000000000000000000A7
:100950000000000000000000000000000000000097
:100960000000000000000000000000000000000087
:1009700000000000000000000000101010102020F7
:1009800020202040C0800000000000000000000087
:100990000000000000000080C02030101010101077
:1009A000E000000000000000000000000000000067
:1009B0000000000000000000000000000000000037
:1009C0000000000000000080C06020206040C08067
:1009D0008000000000000000000000000000000097
:1009E0000000000000000000000000000000000007
:1009F0000000000000000080C040602010100808C7
:100A000004040202010000000000000000000000D9
:100A1000000000000000FE030000606060505058BD
:100A20004F404040404040808000000000E03018CF
:100A300008088888D8300000000000FC068281C1C8
:100A4000710F0000000002031CE000C04040404065
:100A5000613E0000000000000000000000000000F7
:100A60000000000000000000000000000000000086
:100A7000000000000000000001010101010181816E
:100A80004141212111090B06060000000000000071
:100A90000000000000001FF0000000000000000047
:100AA000000000000000000080837E0000031E1193
:100AB0002141414040408080808080838C98B0D02C
:100AC000101010101014080000000FF800000000B3
:100AD0000000000000000000000000000000000016
:100AE0000000000000000000000000000000000006
:100AF000000000000000000000F8848203010000F4
:100B000000000000000000000000000000000000E5
:100B100000000000080C080F0C0808080404040476
:100B200002020202020202020100000000000000B4
:100B3000000000000000000000000080C0404040B5
:100B4000404040C0800000000000000300000000A2
:100B50000000000000000000000000000000000095
:100B60002040C08080C06030180C0C0000000000E5
:100B70000000000000000000000000804121211161
:100B80001111090503000000000000000000000032
:100B90000000000000000000000000000000000055
:100BA0000000000000000000000000000000000045
:100BB00000000000000000000000FC0300000060D6
:100BC000605050888F00000000000000000000000E
:100BD000F806010101010002020C18F0000000807B
:100BE00060380C0703060408081810100000000005
:100BF0000000000000000000FC02010000000000F6
:100C000000000000000000000000000000000000E4
:100C100000000000000000000000000000000000D4
:100C200000000000000000000000000000000000C4
:100C3000000000000000000000007F004040404035
:100C40004040404041633E000000000000000000C2
:100C50000103020408080808080C0603000000004D
:100C60000000000000000000000000000000000084
:100C700000000000000000000001060418202040D1
:100C8000C0000000000000000000000000000000A4
:100C90000000000000000000000000000000000054
:100CA0000000000000000000000000000000000044
:100CB0000000000000000000000000000000000034
:100CC0000000000000000000000000000000000024
:100CD0000000000000000000000000000000000014
:100CE0000000000000000000000000000000000004
:100CF00000000000000000000000000000000000F4
:100D00000000000000000000000000000021080FAB
:100D10000F08080006090B06000E03030E000F095A
:100D20000F06000F0F000F02030F000E0F090D003A
:100D30000E10BEBDBEBDBEBDBEBDBEBDBEBDBE00F5
:100D400000040004000400040004000400004E0835
:100D50000F0D0702000F050F0A000F0D0900020B0F
:100D60000D00020B0D00000000000F0D0702000F28
:100D70000F0808000E03030E00030E0E0300000010
:100D800006090B06000F02030F00000000010F0F01
:100D9000010E03030E000F0D0702000F0D090E10C8
:100DA000A7C7A7C7A7C7A7C7A7C7A7C7A7000707FA
:100DB00007070707070707070707070024080E1F8D
:100DC0001F1F0E00000000000000000000001F0EAA
:100DD00004000000000000000000040E1F00040ECC
:100DE0001F00B61211241FBECFEFDAE0DEBFCDBF69
:100DF00012E0A0E0B1E0E0E4F0E402C005900D9262
:100E0000A23FB107D9F729E0A2EFB2E001C01D92DD
:100E1000A73FB207E1F716E0C2EFD6E004C0219782
:100E2000FE010E941820C13FD107C9F70E94131389
:100E30000C941E200C940000809108030895480F24
:100E4000592F511D1416150684F5803891056CF53F
:100E500097FF02C090E080E04138510514F040E86F
:100E600050E0481BFB01E770FF2721E001C0220F83
:100E7000EA95EAF777FF02C0695F7F4FFB0133E035
:100E8000F595E7953A95E1F7F695FE2FEE27F7955C
:100E9000E795E80FF91FEE5DFC4F415030F081916E
:100EA000DF011197822B8C93F8CF08959091F2096E
:100EB000982329F49091F109982381E009F480E0C6
:100EC0000895FC0180912103882311F13FB7F89424
:100ED00082E08093E9002091F200822F90E01816C2
:100EE000190614F481E090E0882339F0289844E64C
:100EF000409320034091F1004083222339F0209158
:100F0000F200211103C02BE62093E8003FBF0895B3
:100F10008FEF9FEF08952FB7F89483E08093E90057
:100F20009091E800892F807295FF04C09091F200A3
:100F300080E4891B2FBF08958091180381110DC093
:100F400082E08093140384E08093150310921703CA
:100F50001092160381E08093180384E193E00895D2
:100F6000409102035091030320910003309101034B
:100F700042175307B4F49091E8009570E1F3909113
:100F8000E80092FD19C08093F100809102039091D6
:100F9000030301968F739927892B19F48EEF8093A1
:100FA000E80080910203909103030196909303035C
:100FB0008093020381E0089580E00895DF92EF922C
:100FC000FF920F931F93CF93DF93D82E8A01EB01EB
:100FD0007B01E40EF51ECE15DF0559F0D7FE12C0D9
:100FE000FE0184910E94B00721968111F4CF0FEF8A
:100FF0001FEFC801DF91CF911F910F91FF90EF90EC
:10100000DF9008958881EECF0F931F93CF93DF93E6
:101010001F92CDB7DEB782E0898342E450E064E7F7
:1010200071E080E80E94DE070E949C07DC011296B6
:101030000D911C910115110589F0D801ED91FC91DC
:101040000280F381E02DBE016F5F7F4FC8010995DB
:1010500097FD04C0F80100851185ECCF89810F90C0
:10106000DF91CF911F910F910895615030F0209141
:10107000F100FC0120830196F8CF289884E6809344
:1010800020030895AF92BF92CF92DF92EF92FF922A
:101090000F931F93CF93DF936C017B018B01040FA0
:1010A000151FEB015E01AE18BF08C017D10759F03C
:1010B0006991D601ED91FC910190F081E02DC6017E
:1010C0000995892B79F7C501DF91CF911F910F9178
:1010D000FF90EF90DF90CF90BF90AF900895CF93A7
:1010E000DF931F92CDB7DEB76983DC01ED91FC91F0
:1010F0000280F381E02D41E050E0BE016F5F7F4F41
:1011000009950F90DF91CF91089583E08093E900D6
:101110008091F200882319F08AE38093E800089513
:101120000E948B0790E00895CF93DF931F92CDB775
:10113000DEB7FC018485958597FD08C02FEF3FEF52
:10114000358724870F90DF91CF910895CE010196C6
:101150000E946107019719F4898190E0F3CF8FEF26
:101160009FEFF0CF0F931F93CF93DF931F92CDB7D5
:10117000DEB78C01FC018485958597FF0BC0CE01FD
:1011800001960E946107019771F4898190E0F8014E
:1011900095878487F801848595850F90DF91CF919D
:1011A0001F910F9108958FEF9FEFF1CFFC01848580
:1011B000958597FD0BC09FB7F89482E08093E90076
:1011C0008091F2009FBF90E0019608959FB7F89438
:1011D00082E08093E9008091F2009FBF90E0089543
:1011E0003FB7F8948091FC029091FD02A091FE021D
:1011F000B091FF0226B5A89B05C02F3F19F00196BC
:10120000A11DB11D3FBFBA2FA92F982F8827BC0160
:10121000CD01620F711D811D911D42E0660F771F88
:10122000881F991F4A95D1F708958F929F92AF9288
:10123000BF92CF92DF92EF92FF926B017C010E94EE
:10124000F0084B015C01C114D104E104F104B9F0D0
:101250000E94F008681979098A099B09683E734061
:101260008105910580F321E0C21AD108E108F10857
:1012700088EE880E83E0981EA11CB11CE4CFFF907D
:10128000EF90DF90CF90BF90AF909F908F90089598
:1012900065E070E080E090E00C9415098F929F92D9
:1012A000AF92BF92CF92DF92EF92FF920F931F9374
:1012B000CF93DF936C017B018A0180910B0188231E
:1012C00009F45CC080912103882309F457C0809100
:1012D000060380FF05C08091E00082608093E000FB
:1012E000E801B12C8AEFA82E93E0892E2AE3922EF2
:1012F000209711F4BB20D9F10E948B0781110AC0FD
:10130000AA94AA20D9F161E070E080E090E00E9408
:101310001509EECF8C171D0611F00CF08C2F9FB71E
:10132000F8948092E9002091E80025FD02C09FBF5B
:10133000DFCF282F30E0C21BD30BF701815020F004
:1013400041914093F100FACFE20EF31EBB2021F051
:101350009092E800B12CEBCF8091E80085FDE7CFBB
:101360009092E800BB24B394209709F3F3CF5D98E3
:1013700084E680930503101611063CF081E090E0AE
:10138000F6019383828310E000E0C801DF91CF91E2
:101390001F910F91FF90EF90DF90CF90BF90AF9093
:1013A0009F908F9008956F927F928F929F92AF92AD
:1013B000BF92CF92DF92EF92FF920F931F93CF9342
:1013C000DF934C01CB013A017C2DFA0164913196F7
:1013D0005491F2E06F0E711CC62FD0E0211102C0B3
:1013E000EE2009F1E1E0F0E0352F377011F4F0E084
:1013F000E0E0A52FA695A695A695AE0FBF2FB11D2F
:10140000AC9FF001AD9FF00DBC9FF00D1124733027
:1014100009F08BC0EE0FFF1F2E9FD0012F9FB00D44
:1014200011246A0E7B1ED401AC0FBD1F1A161B06B9
:101430000CF06CC020E8821691040CF067C09C018F
:10144000250F311D121613060CF060C08034910573
:101450000CF05CC06114710409F458C0382F377067
:10146000FC0197FD379623E0F595E7952A95E1F77E
:101470002E2F97FF04C0332311F02FEF2E0FEE27EE
:10148000FF27E819F90997FC02C0F0E0E0E090E8D6
:101490009819A038B1050CF4962F9E1BA22F022E8E
:1014A000000CBB0B4A2F40952F3F0CF040E0DD2491
:1014B000D394852F877009F4D12C5695569556955F
:1014C000D50EAD0DB11D19971CF058E0D52ED21ACE
:1014D000D41A240F50E82503D0011124A80DB91DFA
:1014E000AE0FBF1F649FE00DF11D11246E0E7F1E15
:1014F000E32E032E000CFF08733009F423C108F516
:10150000713009F4D6C0723009F484C0DF91CF91F4
:101510001F910F91FF90EF90DF90CF90BF90AF9011
:101520009F908F907F906F9008950115110509F499
:1015300073CFEE9ED001EF9EB00D11240A0F1B1F3A
:101540006BCF7A3FB1F10D2D020F7B3FF9F62017DB
:10155000E9F2BD016E5D7C4FD12CC12CC91608F09B
:10156000A2C0F301EC0DFD1DE491F0E0AF010E2CE3
:1015700002C0440F551F0A94E2F727FD06C0FB0185
:101580008081142F109581238083332361F02730CD
:1015900054F45B01F0E8AF0EB11C452F4095F50106
:1015A000808184238083FFEFCF1ADF0A6F5F7F4F34
:1015B000D5CF0D2D020F201709F4A8CFBD016E5D08
:1015C0007C4FD12CC12CC91608F067C0F301EC0D7B
:1015D000FD1DE491F0E0AF010E2C02C0440F551F39
:1015E0000A94E2F727FD04C0FB018081842B8083ED
:1015F000332351F0273044F45B01F0E8AF0EB11C07
:10160000F5018081852B8083FFEFCF1ADF0A6F5FA2
:101610007F4FD9CF6FEF70E0032E02C0660F771FA8
:101620000A94E2F760957095972E8D2C820E2815FE
:1016300009F46CCF8D010E5D1C4FD12CC12CC91645
:1016400030F5F301EC0DFD1DE491F0E0AF010E2C3F
:1016500002C0440F551F0A94E2F727FD05C0F801A8
:1016600080818623842B8083332359F027304CF4E8
:101670005801F0E8AF0EB11CF50180818921852B5E
:101680008083FFEFCF1ADF0A0F5F1F4FD8CF2F5F86
:101690006C0E7D1EA058BF4FCACF2F5F6C0E7D1EF3
:1016A000A058BF4F88CF2F5F6C0E7D1EA058BF4F34
:1016B0004ECF0E0F1F1F8D2D820F281709F426CF36
:1016C000BD016E5D7C4FD12CC12CC91698F5F80177
:1016D000EC0DFD1DA490B12C0E2C02C0AA0CBB1C5D
:1016E0000A94E2F7A094B094F301EC0DFD1D8490F0
:1016F000912C0E2C02C0880C991C0A94E2F727FD4D
:1017000008C0FB014081E42FEA214E2F4829FB014C
:101710004083332349F027303CF4FB01E058FF4F6E
:10172000A080BA20B928B082FFEFCF1ADF0A6F5F1E
:101730007F4FCBCF2F5F6C0E7D1E0C0F1D1FA0584F
:10174000BF4FBBCFE92EF12CE60DF71DAE5DBC4FB0
:1017500060E870E06E197F09CE19DF09AE01440F11
:10176000551FC1E0D0E07E01032E01C0EE0C0A94AB
:10177000EAF7192F0D2D892E932ECF93DF93ED01CC
:10178000EF96EF962296A590C590992059F0AE9CC1
:101790005001CE9C600127302CF4F880D094FD20BD
:1017A000FB28F99222233AF0FC90C094FC20FA28FE
:1017B000FD920C94DC0B11961A9529F70A9551F0BD
:1017C000182D23951124E40FF11DA60FB11DC60F8E
:1017D000D11DD9CFDF91CF91112498CECF92EF9226
:1017E0000F931F9322E0C22EE12C10E000E020E0D6
:1017F0000E94D3091F910F91EF90CF9008958FB160
:101800008095807F669B88601C9B8460089520E1A2
:1018100091E061FD94E060FD990F62FD9295687F13
:10182000269FD0011124A80FAE5DBC4F8C9140FFC4
:1018300003C0892B8C93089590958923FBCFDF9269
:10184000EF92FF920F931F93CF93DF937C01D22EE1
:101850008B01040F111DEB0177FF02C0D0E0C0E047
:10186000C8010134110514F080E490E0C817D907CD
:101870005CF480E8E816F10428F44D2DBE01C701A0
:101880000E94070C2196ECCFDF91CF911F910F9111
:10189000FF90EF90DF900895CF92DF92EF92FF924A
:1018A0000F931F93CF93DF936B01122FEC017C01F9
:1018B000E40EF11CCE15DF0544F4202F412FB601B4
:1018C000CE010E941F0C2196F5CFDF91CF911F9181
:1018D0000F91FF90EF90DF90CF900895EF92FF92DD
:1018E0000F931F93CF93DF937C018B01C42FD22FD3
:1018F0000E941F07B8016D0F711D6150710960349E
:10190000710524F44C2FC7010E941F0721E04D2FC1
:10191000B801C7010E941F0CC7018C0F911D21E067
:101920004D2FB8010197DF91CF911F910F91FF903B
:10193000EF900C941F0C0895CF92EF920F931F938A
:10194000CF93DF93EC016A3079F48D818C838E81A3
:101950009985890F8E8381E090E0DF91CF911F916F
:101960000F91EF90CF9008959C81603219F49E5FA3
:101970009C83F1CF6E37D9F3262F6E816F5F2A33A8
:1019800098F4203398F52B32A9F140F4213281F1FB
:1019900098859D5F8C81890F8C83DDCF2C3211F16E
:1019A0002E32B1F72FE309C0213490F32B35E0F04C
:1019B0008FE9820F27548A3158F7062E000C770BD7
:1019C000892F990F990B3F814AEFC42E313011F0C6
:1019D0003BEFC32EE12C10E000E04CEA50E00E9407
:1019E000D309D6CF21E4E9CF2154E7CF2C5FE5CF4F
:1019F0002EE3E3CF20E4E1CF089590E080E0089566
:101A000020911103E0910F03F0911003CF01029692
:101A10009093100380930F03222319F085919491E2
:101A20000895808191810895CF92DF92EF92FF9285
:101A3000CF93DF930E94000D811520E8920791F467
:101A4000809171008D7F8093710010929100469873
:101A500047981092F402DF91CF91FF90EF90DF90C2
:101A6000CF90089521E02093F402813020E892077E
:101A700051F480910D0390910E0390931003809385
:101A80000F030E94000D97FD05C02091F302222351
:101A900009F45AC02091F202211156C021E020938E
:101AA000F502813020E8920710F090E080E0EC0130
:101AB000DF77209709F04BC081E08093F6024698CB
:101AC0003FE9C32E3FE0D32EE12CF12CCAEFD0E04A
:101AD000E0918007F09181070995811103C081E0B1
:101AE0008093F6028091F502882329F08091F60216
:101AF000882309F43FC047980E94000D0097F1F138
:101B00009C01DE010E94E91FDC01CB0129E0B595B3
:101B1000A795979587952A95D1F7109290002AE07E
:101B200020939100D0929900C09298008093F70280
:101B30009093F802A093F902B093FA028091710099
:101B400082608093710087CF1092F502AACF9E0128
:101B500050E040E060E472E48FE090E00E94951F66
:101B600069017A0181E0C81AD108E108F1081092F0
:101B7000F602AECF4699BFCF479ABECF8FEF9FEF09
:101B8000DC01CBCFDC018D919C911197811520E870
:101B9000920751F4E091DB0924E0E29FF001112467
:101BA000EA57F84F928381838091DC099091DD0997
:101BB00011969C938E9312968D919C911397892BDD
:101BC00041F48091DF099091E00913969C938E93E4
:101BD000129708958091DF099091E009E2E8F7E01B
:101BE0001282118294838383349629E0EA3DF207BE
:101BF000B9F783E08093E10980E090E8909384074F
:101C000080938307E3E8F8E0859194919093DD0950
:101C10008093DC091092DB0908957F779FE0899F0C
:101C2000A001112430E020E0FA01E20FF31FEE0FD3
:101C3000FF1FE55EF74FA591B4916A177B0791F4FA
:101C4000211109C09EE1899FF0011124E55EF74F43
:101C5000859194910895F9013197E40FF51FEE0FE6
:101C6000FF1FF4CF2F5F3F4F2F303105E9F680E0A3
:101C700090E008957F779FE0899FA001112430E0D4
:101C800020E0FA01E20FF31FEE0FFF1FE55EF74FB2
:101C9000A591B4916A177B07A1F42E3049F49EE117
:101CA000899FF0011124E95CF74F85919491089583
:101CB000F9013196E40FF51FEE0FFF1FE55EF74FB8
:101CC000F4CF2F5F3F4F2F303105D9F680E090E001
:101CD00008957F779FE0899FA001112430E020E0E4
:101CE000822FFA01E20FF31FEE0FFF1FE55EF74FA1
:101CF000A591B4916A177B0741F4223010F4835008
:101D000008952C3038F08B5008952F5F3F4F2F30BF
:101D1000310531F780E008957F779FE0899FA0012A
:101D2000112430E020E0922FFA01E20FF31FEE0FB2
:101D3000FF1FE55EF74FA591B4916A177B0729F461
:101D4000990F990F8AE3891B08952F5F3F4F2F301A
:101D5000310549F780E00895CF93DF93EC0182E3EA
:101D600090E00E947F1F8883CE01DF91CF9108957C
:101D7000FB0101900020E9F73197AF01461B570B9B
:101D8000DC01ED91FC910280F381E02D09948F92AA
:101D90009F92AF92BF92EF92FF920F931F93CF93B8
:101DA000DF93CDB7DEB7A1970FB6F894DEBF0FBEB5
:101DB000CDBF7C01FA01CB0119A2223008F42AE040
:101DC0008E010F5D1F4F822E912CB12CA12CBF01D3
:101DD000A50194010E94C71FF901CA016A300CF5E0
:101DE000605DD8016E938D01232B242B252B79F771
:101DF00090E080E0109721F0BD01C7010E94B80E6D
:101E0000A1960FB6F894DEBF0FBECDBFDF91CF9184
:101E10001F910F91FF90EF90BF90AF909F908F9088
:101E20000895695CDECFAC01990F660B770B2AE051
:101E300082EE99E00C94C70EAB0170E060E02AE0FE
:101E40000C94C70ECF93DF93BC0182E297E00E940F
:101E5000B80EEC016FE371E082E297E00E94B80EE9
:101E60008C0F9D1FDF91CF9108950C94B80E1F9297
:101E70000F920FB60F9211248F939F938091E100E0
:101E80009091E100937F9093E10083FF0FC0109247
:101E9000E90091E09093EB001092EC0092E39093B4
:101EA000ED001092210398E09093F00082FF22C091
:101EB00093E09093E9009091F200992319F09AE34E
:101EC0009093E80090910503992341F090910503C8
:101ED000915090930503911101C05D9A9091200358
:101EE000992341F0909120039150909320039111F8
:101EF00001C0289A84FF18C08091E2008E7E816024
:101F00008093E2008091E1008F7E8093E1008091D8
:101F100006038E7E8061809306039F918F910F90C0
:101F20000FBE0F901F90189580FFF7CF8091E200B1
:101F30008E7E80618093E2008091E1008E7E8093AE
:101F4000E100809106038E7E8160E5CF1F920F92A3
:101F50000FB60F921124CF92DF92EF92FF920F9360
:101F60001F932F933F934F935F936F937F938F9321
:101F70009F93AF93BF93EF93FF93CF93DF93CDB72F
:101F8000DEB76C97DEBFCDBF1092E9008091E8000C
:101F900083FF25C068E0CE0145960E94350882EF98
:101FA0008093E8008D8987FF39C09091E80090FF09
:101FB000FCCF982F907609F034C19E894F89588DB7
:101FC0002F89F88C911131C0803861F58091070319
:101FD0008093F1001092F1008EEF8093E8006C96F0
:101FE0000FB6F894DEBF0FBECDBFDF91CF91FF914A
:101FF000EF91BF91AF919F918F917F916F915F9181
:102000004F913F912F911F910F91FF90EF90DF9093
:10201000CF900F900FBE0F901F9018959EEF90934A
:10202000E800C7CF1092F100D5CF913059F481115B
:10203000D3CF4130510581F6809107038D7F809386
:102040000703CACF933049F48111C6CF41305105FF
:1020500019F6809107038260F2CF953041F48091A8
:10206000E80080FFFCCF20682093E300B5CF9630D6
:1020700009F0A9C00B8D1C8D22E01092E90010928E
:10208000030310920203F2122EC010920103109269
:1020900000030E9404081F8299E09983FA8291E06C
:1020A0009E8390EA98879AEF998720910203309156
:1020B0000303275F3F4F3C832B838D831092E900FE
:1020C0001092030310920203109301030093000384
:1020D00049E050E0BE016F5F7F4F80E00E94DE0765
:1020E0000E94040879CF10930103009300030E941B
:1020F0009C07DC0112960D911C910115110509F444
:1021000051C1D801ED91FC910480F581E02DBE0113
:102110006B5E7F4FC8010995009709F03EC1F80139
:1021200000851185EACFF3E0FF120EC08F89882366
:1021300009F440C0823061F440E860E188ED91E04C
:102140000E948312811148CF81E28093EB0047CF38
:10215000813029F440E86BE08CEC91E0F1CF8330E2
:1021600099F70E949C07DC011296ED90FC908E017D
:102170000F5F1F4F6801E114F10479F0D701ED9171
:10218000FC910680F781E02DB801C7010995080F81
:10219000111DF701E084F184EECFD8011C92F60105
:1021A00001900020E9F73197BF016C197D0940E0EB
:1021B000C601C6CF66EB71E0FB01449150E080E8B8
:1021C0000E94DE0709CF973009F4BECF983021F482
:1021D00081E08093F10000CF993009F0FDCE83704B
:1021E00009F0B2CFE5E1F1E081E031E096E3219141
:1021F000222371F08093E9003093EB00DF01119707
:102200002C912093EC009093ED008F5F873079F74D
:102210008EE78093EA001092EA008F898093210371
:10222000DBCE8B8D9C8D1092E900109203031092EF
:1022300002039093010380930003898D811192C062
:102240008E899D89913A49F4813209F07DCF47E02A
:1022500050E064E071E080E0B3CF913209F074CFD8
:10226000833269F48F89988DB0E0A0E080930001FB
:1022700090930101A0930201B0930301ADCE80328F
:1022800069F48091E80082FFFCCF67E084E091E090
:102290000E9435088BEF8093E8009ECE823209F0D1
:1022A0009BCE8F8980930B01EEEFFFE78591949190
:1022B0008B3F9C4D51F1E0E0F8E08091040190915A
:1022C0000501A0910601B0910701803B9440A10552
:1022D000B105F1F480910B0180FD1AC0EE3F8AE058
:1022E000F80789F587E797E79183808380916000FD
:1022F0008093040388E19BE00FB6F894A89580933F
:1023000060000FBE9093600067CEEEEFFAE0D5CF8D
:10231000808191818737974709F05ECEA89580919B
:102320006000886180936000809104038093600066
:10233000EE3F2AE0F20789F08091FE0A9091FF0AB1
:102340009183808349CE808191818737980751F2AC
:102350009093FF0A8093FE0AC5CF1092FF0A109255
:10236000FE0A3ACE0E949C07DC0112960D911C9148
:102370000115110509F4E8CED801ED91FC91019009
:10238000F081E02DBE016B5E7F4FC8010995811180
:1023900023CEF80100851185EBCF181619060CF431
:1023A0001BCED2CEF1E0FF12BECE6AEB71E004CFBD
:1023B0001F920F920FB60F9211242F933F938F937A
:1023C0009F93AF93BF938091090390910A03A091CB
:1023D0000B03B0910C033091FB0223E0230F2D3748
:1023E00058F50196A11DB11D2093FB0280930903AE
:1023F00090930A03A0930B03B0930C038091FC020B
:102400009091FD02A091FE02B091FF020196A11DE4
:10241000B11D8093FC029093FD02A093FE02B09345
:10242000FF02BF91AF919F918F913F912F910F909C
:102430000FBE0F901F90189526E8230F0296A11D3E
:10244000B11DD2CF1F920F920FB60F9211242F936E
:102450003F934F935F936F937F938F939F93AF932C
:10246000BF93EF93FF938091F7029091F802A091B0
:10247000F902B091FA02892B8A2B8B2B09F440C008
:102480008091F60281110BC088B190E4892788B948
:102490008091F502882319F088B1805888B980911D
:1024A000F7029091F802A091F902B091FA02181681
:1024B00019061A061B069CF48091F7029091F80207
:1024C000A091F902B091FA020197A109B109809394
:1024D000F7029093F802A093F902B093FA02FF91E9
:1024E000EF91BF91AF919F918F917F916F915F918C
:1024F0004F913F912F910F900FBE0F901F90189505
:102500000E94140DECCFEF92FF920F931F93CF9385
:10251000DF93F82E192FE62E042F81E0860F880F07
:102520000E94B00783E00E94B007CF2DD12FEC0EA0
:10253000FD2EF11CCE15DF05B9F007FF13C0FE011B
:1025400084910E94B007182F80E00E94B007812379
:1025500021968111EFCFDF91CF911F910F91FF90C5
:10256000EF9008958881EDCF81E0F5CFE2E2F7E0CA
:102570001382128288EE93E0A0E0B0E0848395831A
:10258000A683B7838FE191E0918380838FEF9FEFE4
:1025900095878487ECEEF9E01582168280E18783C7
:1025A0001482138211868DE391E0918380838CE104
:1025B00097E0909381078093800780E090E8909364
:1025C0007F0780937E0746983E9A47983F9AE2EEAF
:1025D000F9E01382128281E391E09183808388E0A5
:1025E000818781E080871582168214828783E3E8E1
:1025F000F7E088E592E0DF019C011D922150304018
:10260000E1F71092DB091092DD091092DC091092BB
:10261000DE098DE790E09093E0098093DF0983E085
:102620008093E1090895CF93DF9300D01F92CDB737
:10263000DEB7789484B5826084BD84B5816084BD42
:1026400085B5826085BD85B5816085BD80916E0050
:10265000816080936E001092810080918100826081
:1026600080938100809181008160809381008091BE
:1026700080008160809380008091910082608093CF
:1026800091008091910081608093910080919000F1
:102690008160809390008091C10084608093C1002C
:1026A0008091C10082608093C1008091C1008160EF
:1026B0008093C1008091C30081608093C3008091AA
:1026C000C00082608093C0008091C20081608093CE
:1026D000C20080917A00846080937A0080917A00B1
:1026E000826080937A0080917A00816080937A0082
:1026F00080917A00806880937A0010922103109272
:102700000703109206038091D70081608093D70061
:1027100080EA8093D80089B5806189BD89B58260DF
:1027200089BD09B400FEFDCF61E070E080E090E07B
:102730000E9415098091D8008F7C80618093D80019
:102740008091E000807F8093E0008091E1008E7EA8
:102750008093E1008DE08093E200559A209A81EC0D
:1027600080937C0085B1806F85B984B1877E84B900
:1027700084B1876E84B95E9A5F988AB1806D8AB998
:10278000769A6E9881B3806F81BB899880B38D7083
:1027900080BB80E58CBD81E08DBD0E9448095F9AB9
:1027A0000E9448095E985C98E9EEF1E084918EBD44
:1027B00000000DB407FEFDCF319601E0E63FF007C3
:1027C000A9F75C9A81E8809364008091650081603C
:1027D000809365000E94FF0B87FF15C05C9885EA17
:1027E0008EBD00000DB407FEFDCF5C9A2E982F9889
:1027F0002D988091640080628093640081E083BFA3
:10280000889513BEFCCF809164008E7F8093640016
:1028100080917A00806480937A0080917A0086FDAE
:10282000FCCF00917800109179000E94F008AB0174
:10283000BC01C801B0E0A0E0DC01992788278C0129
:102840009D01040F151F261F371FC901B8012091D4
:102850006400216020936400611571058105910574
:1028600011F00E94761F3E9A3F9A81E08093080300
:102870000E94EA0D8FB7F8944091090350910A0322
:1028800060910B0370910C038FBF8091F409942F1A
:10289000981B8091F509882359F09093F6091092BE
:1028A000F50980E090E0892B29F30E940000E2CF37
:1028B0002091F309921740F49F5F921790F781E0FF
:1028C00083BF889513BEEDCF91E09093F5094093B7
:1028D000F4092091EF093091F0092F5F3F4F3093B9
:1028E000F0092093EF09E2E2F3E081118FEF002479
:1028F00081938193819381930394D1F78091F1091E
:102900008093F2090E94FF0B8093F10990911303C9
:10291000913009F486C098F0923009F491C0E2E257
:10292000F3E081E0A0E0B8E000800EBC8111012C52
:102930001197A0FDFDCF0192B9F70DB4B2CF9091E0
:10294000F2099095892371F080911203882319F080
:102950008CE78093120380911203811107C081E0FC
:102960008093120380911203882341F08F5F80933C
:1029700012038D3719F481E0809313034CEB5DE073
:1029800061E170E08FE290E00E94EE0B4EE95DE0C5
:102990006AE170E08BE290E00E94EE0B4EE95DE0B0
:1029A0006AE170E089E490E00E94EE0B109112035E
:1029B000111111C04EE95DE06AE170E08AE390E038
:1029C0000E94EE0B4EE45DE06EE270E08AE190E082
:1029D0000E94EE0BA4CF40E35DE06AE170E08AE381
:1029E00090E00E94EE0B4DE05DE06EE270E08CE264
:1029F00090E00E94EE0B812F6FE00E94F81F837021
:102A0000E82E0FE410E0F12CEF1409F488CF41E038
:102A100061E370E0C8010E94070CF3940E5F1F4F42
:102A2000F3CF9091F2099095892319F082E0809379
:102A300013034BE059E070E060E090E080E0C8CF25
:102A40001091DB098091DE09823308F099C3012FD0
:102A500010E088E00E945607882349F1F801EE0F44
:102A6000FF1FEE0FFF1FDF01AE57B84F11968D917C
:102A70009C91811520E8920739F4DF01AA57B84FDD
:102A800012969C938E931197EE57F84F8091DC0924
:102A90009091DD099283818383819481892B31F523
:102AA0008091DF099091E009948383831FC00E9485
:102AB000FF0B83FF1BC080E20E945607882309F4A6
:102AC0000CC1000F111F000F111FF801EE57F84F36
:102AD000838194812091DF093091E009281739071B
:102AE00008F0ECC0821B930B9483838384E00E94E4
:102AF0005607882309F463C182E491E00E94220F03
:102B000002E817E0F8016181728182E297E00E9499
:102B10001C0F67E571E082E297E00E94350FD80153
:102B200013966D917C9182E297E00E941C0F6FE7F3
:102B300071E082E297E00E94350F0C5F1F4FEAEDD3
:102B4000F9E0E017F107F1F68FE791E00E94220F1C
:102B50000E94FF0B83FD14C20E94FF0B82FD10C276
:102B600080E20E9456078823C1F0E091DB09EE2342
:102B7000A1F0E150E093DB0914E0E19FF0011124A2
:102B8000EE57F84F349785819681811520E892079A
:102B9000C9F39093DD098093DC0980E40E94560715
:102BA000882309F44AC02091DB09211107C08091D4
:102BB0008307909184078115904821F48FEF820F4D
:102BC000833938F52F5F2093DB0930E0C901880F86
:102BD000991F880F991FFC01EE57F84F34974581D4
:102BE0005681411560E85607C9F35093DD094093BB
:102BF000DC09220F331F220F331FF901EE57F84F64
:102C0000218132812115304821F48D57984F0E943F
:102C1000C20D8091DC099091DD09892B71F4E0915E
:102C2000E1098EE1E89FF0011124E75DF74F8591FE
:102C300094919093DD098093DC0980E80E94560707
:102C4000882309F447C1E091DB09E1112CC180918F
:102C50008307909184078115904869F4F4E0EF9F11
:102C6000D0011124AA57B84F11968D919C918115CE
:102C7000904809F01BC1EF5FE093DB0914E0E19F8E
:102C8000F0011124EE57F84F349765817681611574
:102C900020E87207C9F38091E1090E943A0E9093EF
:102CA000DD098093DC098091DB0934E0839FC0015A
:102CB00011248D57984F0E94C20DF8C0F801EE57AD
:102CC000F84F818192818130B0E89B0720F09F7797
:102CD000928381830BCF9068FBCF80E40E945607DC
:102CE0008823D1F0000F111F000F111FF801EE57BC
:102CF000F84F838194812091DF093091E009A90187
:102D000063E0440F551F6A95E1F78417950708F0B3
:102D1000EDCE820F931FC8CE80E80E94560788230D
:102D200031F18091DC099091DD09892B09F4DECE27
:102D3000000F111F000F111F0E57184FF80161816E
:102D400072818091E1090E943A0ED80112969C93FB
:102D50008E9311976091DC097091DD098091E109F2
:102D60000E943A0E9093DD098093DC09BFCE80E18A
:102D70000E945607882309F4B9CE8091DC0990910E
:102D8000DD09892B09F4B2CE000F111F000F111FAE
:102D90000E57184FF801618172818091E1090E94FC
:102DA0000D0ED80112969C938E9311976091DC09B9
:102DB0007091DD098091E1090E940D0ED3CF0E9430
:102DC000FF0B82FFC5CE80E40E945607882381F165
:102DD000A3EDB9E084E990E0E091DB09F0E08E1723
:102DE0009F0770F04D915D916D917C9113971496B2
:102DF0004D935D936D937C93179701971497ECCF48
:102E0000DF01AA0FBB1FAA0FBB1FAA57B84F11960D
:102E10008D919C91EE0FFF1FEE0FFF1FEE57F84FA5
:102E2000928381838091DF099091E0099483838369
:102E300080E20E945607882309F48ACEE091DB09DC
:102E4000EE2309F485CE8E2F90E0DC01AA0FBB1F84
:102E5000AA0FBB1FAD57B84F8539910560F4019695
:102E600014964D915D916D917C9117974D935D9363
:102E70006D937D93F1CF8091DF099091E00990935C
:102E8000DE098093DD09E150E093DB0904E0E09F77
:102E9000F0011124EE57F84F818192819093DD0962
:102EA0008093DC0955CEE43908F4D8CE8091DC0952
:102EB0009091DD09892B71F4E091E1094EE1E49FE5
:102EC000F0011124E75DF74F859194919093DD090E
:102ED0008093DC0980E10E945607882309F450C0E2
:102EE000E091DB09E11136C080918307909184075E
:102EF0008115904861F464E0E69FD0011124AA573F
:102F0000B84F11968D919C918115904829F5EF5FEE
:102F1000E093DB0984E0E89FF0011124EE57F84FBD
:102F2000349765817681611590E87907C9F38091BE
:102F3000E1090E940D0E9093DD098093DC098091D8
:102F4000DB09A4E08A9FC00111248D57984F0E948D
:102F5000C20D02C0E43978F28091DC099091DD095C
:102F6000892B71F4E091E109BEE1EB9FF00111249E
:102F7000E75DF74F859194919093DD098093DC098B
:102F80000E94FF0B83FFF1C084E00E945607882354
:102F900009F4EBC081E08093DE098091DE09823381
:102FA00068F40E94FF0B83FF09C00E94FF0B82FFA1
:102FB00005C08091DE098F5F8093DE090E94FF0BC0
:102FC00083FF03C00E94FF0B82FF1092DE0940E8DE
:102FD00060E170E090E080E00E941F0740E868E157
:102FE00070E090E080E00E941F0740E860E270E03F
:102FF00090E080E00E941F0740E868E270E090E007
:1030000080E00E941F0740E860E370E090E080E00D
:103010000E941F078091EF099091F00960E370E032
:103020000E940420382EA090DB09B12CC501880F26
:10303000991F880F991FAC014E57584F2A01B2E4CF
:103040008B2E912C8091DB0990E09C01245F3F4FF7
:10305000A216B306F0F4D20111960D911C911297AD
:1030600013966D907C90A816B90639F401151105D8
:1030700021F40091DC091091DD090115B0E81B076E
:1030800009F04EC325E243E06EE070E0C4010E9407
:103090006E0C2091DB0930E03901A1E06A1A710859
:1030A000C901880F991F880F991FFC01EE57F84F2F
:1030B0002F014CEF42038001439F100D11241B830D
:1030C0000A8372E4A72EB12C1C0113E0211A3108E7
:1030D0008091DB098751990B681679060CF49CC422
:1030E000EA81FB81E40DF51DE20DF31DC080D18066
:1030F000F201319780809180B6018091E1090E94B0
:10310000690E18160CF0FDC3F12C082F880F110B57
:103110002F2D30E06091DF097091E009C4010E9419
:103120000420021713070CF41EC444E050E0421BB5
:10313000530B9A01220F331F220F331F2034310506
:1031400088F48FEF860F482F440F480F440F475FD6
:103150005AEF5603C00111248A0D9B1DB901029735
:103160000E941F07F394F394D3CF88E00E94560780
:10317000882309F412CF0E94FF0B82FD0BCF0DCFE5
:1031800080910C01813009F4DDC0B8F0823009F47F
:10319000B1C2833009F01BCF80E20E94560788231A
:1031A00019F082E080930C0180E40E945607882386
:1031B00009F4B0C210920C01ADC280E20E94560721
:1031C000882319F083E080930C0180E40E94560765
:1031D000882319F081E080930C0180E80E94560753
:1031E000882339F080910D01882319F08150809354
:1031F0000D0180E10E945607882381F080910D0126
:10320000843060F48230C9F5CE0101960E94AC0E84
:103210008981833619F483E080930D0184E00E9454
:10322000560781111092DE0988E00E945607882314
:1032300009F4CDCE80910D01823009F44CC0F8F430
:103240008823A9F1813009F0C2CE8091DB09F4E036
:103250008F9FC00111248D57984F209171002D7FB1
:1032600020937100109211039093100380930F0329
:1032700090930E0380930D032BC08F5FCDCF8330CF
:1032800009F445C0843009F0A2CE82E390E00E94A8
:103290007F1F843629F064E682E390E00E94871F56
:1032A00080E28093820782E080930D0190CE80912E
:1032B00071008D7F8093710010921103E3E8F7E0B5
:1032C000F0931003E0930F03F0930E03E0930D03CC
:1032D0000E94140D7CCE83E68093820732E8E32EB1
:1032E00037E0F32E02E310E0D701DD907D01C80145
:1032F0000E947F1FD81621F06D2DC8010E94871FE4
:103300000F5F1F4F0239B2E01B0771F760CECE018D
:1033100001960E94AC0E8981833609F058CE22E8CE
:10332000E22E27E0F22E02E310E0C8010E947F1F88
:10333000F70181937F010F5F1F4F0239F2E01F07F2
:10334000A1F745CE80E20E94560700910F01882325
:1033500021F0023011F410920C0180E40E94560713
:10336000882321F0023011F400930C0180E80E94C0
:103370005607882349F080910E01882329F00230F6
:1033800019F4815080930E0180E10E945607882332
:1033900041F180910E01833020F5023021F58F5FDD
:1033A00080930E0188E00E945607882371F082E026
:1033B000023009F09CC180910E01823009F45EC197
:1033C00008F495C1833009F45CC184E00E9456077B
:1033D000882309F4FCCD1092DE0982E080930F016E
:1033E000F6CD0230F9F280E20E945607882341F0C0
:1033F00080910E01882309F465C0813009F4A3C0CF
:1034000080E40E945607882369F280910E01882388
:1034100009F4F6C0813031F62091E109273010F629
:1034200081E0820F8093E1095FE0259F90011124E4
:1034300079016FE0E60EF11CA2E8B7E074E0179F97
:10344000C00111248E57984F11966D917C9112975F
:103450007F776115710571F150E040E0142FFA019A
:10346000E20FF31FEE0FFF1FE55EF74FC590D490FC
:10347000C616D70631F04F5F5F4F4F30510571F7D9
:1034800010E0F701E10FF11DEE0FFF1FE55EF74FB2
:103490004591549112965C934E931197FC01349789
:1034A00045815681411510E85107C9F35093DD0954
:1034B0004093DC0914964AED59E04A175B0709F07E
:1034C000C3CF70CF2091DF093091E009EBE0F8E045
:1034D00090E080E054915217130679F5863029F078
:1034E000FC01EE0FFF1FE35FF74FE491F0E02E17B2
:1034F0003F0709F485CFF093E009E093DF0982E804
:10350000E82E87E0F82ED70113968D919C91B90192
:103510000E9404206E9FC0016F9F900D1124D7015F
:1035200014969C938E931397B4E0EB0EF11C4AED26
:1035300059E04E155F0539F763CF01963296873013
:10354000910541F65DCF8091E109282F30E02115EA
:10355000310509F455CF9FEF980F9093E1094FE0A3
:10356000849FC001112421503109429F7001439F63
:10357000F00C1124A2E8B7E054E0159FB00111242B
:103580006E57784F11964D915C9112975F77411568
:10359000510571F130E020E0B22EF901E80FF91F7A
:1035A000EE0FFF1FE55EF74FC590D490C416D50609
:1035B00031F02F5F3F4F2F30310571F7B12CF701FC
:1035C000EB0DF11DEE0FFF1FE55EF74F25913491D6
:1035D00012963C932E931197FB01349725813681E7
:1035E000211540E83407C9F33093DD092093DC0945
:1035F0001496EAEDF9E0EA17FB0709F0C3CF00CF14
:10360000E090DF09F090E009EBE0F8E090E080E086
:1036100034913E151F0461F5882329F0FC01EE0F5B
:10362000FF1FE75FF74FE491F0E0EE16FF0609F4A5
:10363000B9CEF093E009E093DF0922E837E0D90141
:1036400013968D919C91B7010E9404206E9FC0013A
:103650006F9F900D1124D90114969C938E9313970C
:103660002C5F3F4F4AED59E04217530741F79ACE7E
:10367000019632968730910559F694CE0E94EA0D54
:10368000A4CE89E591E00E94220F02E817E0D8015C
:1036900011966D917C9112971396ED90FC906115A7
:1036A000B0E87B07F9F010F070E060E082E297E0AC
:1036B0000E941C0F67E571E082E297E00E94350FDF
:1036C000B70182E297E00E941C0F6EE771E082E290
:1036D00097E00E94350F0C5F1F4F2AED39E020174D
:1036E0003107A9F681E891E00E94220F6ECE809307
:1036F0000F016BCE80E20E945607882319F081E00B
:1037000080930C0180E40E945607882319F083E01F
:1037100080930C0184E00E945607811156CC57CC4F
:10372000B8018091E1090E94690E18166CF5212CF0
:10373000C82E880FDD087401E2E0EE1AF108822D30
:1037400090E0C816D9060CF44EC024E030E0281BE7
:10375000390B220F331F220F331F2034310588F419
:103760006091DF097091E009C3010E94042061505B
:10377000462F440F460F440F475FB901C7010E940F
:103780001F0723942394DBCF882369F1212C282F52
:10379000332721950CF430956901740132E0E31A66
:1037A000F108222D30E0C216D306ECF0245F3F4F23
:1037B000220F331F220F331F203431058CF4609108
:1037C000DF097091E009C3010E9404206150462F77
:1037D000440F460F440F475FB901C7010E941F07FE
:1037E00023942394DECF6114710491F18091DB095D
:1037F00090E0A816B90611F548E1431510F1609163
:10380000DF097091E009C3010E940420FF24FA94AB
:10381000F60E8091E109B80117FD4FC00E948C0E91
:10382000682F70E0CC24C394EF2C09E015E02F2D15
:1038300049E856E0C4010E94D3090AC08A159B05D5
:10384000F0F28091DC099091DD0908171907B9F6AB
:103850008091DB098A151B04E9F458E15315D0F473
:10386000E091DC09F091DD092091E1096114710416
:1038700089F5BF01822F0E948C0E682F70E0CC2446
:10388000C394E12C09E015E020E045E052E0C401DA
:103890000E94D3096091DF097091E009C3010E9481
:1038A000042076E0679F800C911C11248FEFA81AEA
:1038B000B80A94E0490E511CC5CB0E948C0E682FAB
:1038C00070E0CC24C394EF2C09E015E02F2D47E8DD
:1038D00053E0B0CF6091DF097091E009C3010E940D
:1038E0000420FF24FA94F60EBF01822F0E948C0E52
:1038F000682F70E0CC24C394EF2C09E015E02F2D45
:10390000C4CF882381F1F12C682F772761950CF4BF
:1039100070958B012F2D30E06091DF097091E009E7
:10392000C4010E94042002171307ECF0245F3F4FEC
:10393000220F331F220F331F203431058CF48FEFF9
:10394000860F482F440F480F440F475F7AEF7603E6
:10395000C00111248A0D9B1DB90102970E941F0707
:10396000F394F394D7CF77FC2BC06091DF0970916B
:10397000E009C4010E940420FF24FA94F60E80910D
:10398000E109B601D7FC30C00E948C0EE82FF0E0B0
:103990006091DF097091E009C4010E9404200AEFE0
:1039A0000603C0011124CC24C394EF2C09E015E0D8
:1039B0002F2D49E856E0BF018A0D9B1D0E94D309B7
:1039C0006091DF097091E009C4010E9404202AEF90
:1039D0002603B0011124A60EB71E31E0631A710848
:1039E00044E0441A510874CB0E948C0EE82FF0E09A
:1039F0006091DF097091E009C4010E9404201AEF70
:103A00001603C0011124CC24C394EF2C09E015E067
:103A10002F2D47E853E0CFCF8091DE09823309F0A4
:103A200059C000E020E44AE470E060E086E390E002
:103A30000E944C0C01E028E04AE470E060E086E37C
:103A400090E00E944C0C20E44AE470E060E086E3E1
:103A500090E00E946E0C9BEFC92EE12C10E000E07C
:103A600020E040E052E062E070E085E790E00E94F4
:103A7000D30920E04BEF51E062E070E089E790E08D
:103A80000E94D30988E38093E7098093E60901E067
:103A90000093E8091092E9096EE871E082EE99E07E
:103AA0000E94350F1CE31093E7091093E6092BE001
:103AB000F22EF092E8090093E90980910C0181301F
:103AC00009F4B5C008F477C0823009F44CC18330E2
:103AD00009F46EC100E028E04EE16FEF7FEF8FEF59
:103AE0009FEF0E944C0C01E027E04CE170E060E0A9
:103AF00090E080E00E944C0C11E01093E7091093D5
:103B0000E6091092E8091092E90968EE72E082EE87
:103B100099E00E94350F8091E10990E001960E94A2
:103B2000130F00E028E04EE168E370E08FEF9FEFB5
:103B30000E944C0C01E027E04CE169E370E090E06A
:103B400080E00E944C0C1093E7091093E60989E38A
:103B50008093E8091092E9098091DB09893030F4FB
:103B60006FEE72E082EE99E00E94350F8091DB09E2
:103B7000833630F46FEE72E082EE99E00E94350FEA
:103B80008091DB0990E001960E94130F80E1809301
:103B9000E7098093E60989E38093E80986E990E0E4
:103BA0000E94130F40E06CE370E08EE090E00E9412
:103BB000070C0C948F1466E971E082EE99E00E9484
:103BC000350F67EA71E082EE99E00E94350F10939D
:103BD000E7091093E6098FE18093E80969EB71E04A
:103BE00082EE99E00E94350FCE0101960E94AC0E44
:103BF000898160E872E0833641F469EC71E082EE1D
:103C000099E00E94350F6BED71E082EE99E00E9421
:103C1000350FE0910D01F0E0EA50FE4F649170E045
:103C200021E045E089E390E00E941F0C53CF69EE4C
:103C300071E082EE99E00E94350F80910F018111B1
:103C40007CC040E052E06CE070E087E590E00E94CC
:103C5000EE0B4BEF51E06CE070E082E790E00E94E9
:103C6000EE0B01E027E044E16BE070E08CE590E0D2
:103C70000E944C0C80E68093E7098093E609F0925D
:103C8000E8091092E9096091DF097091E00982EE7C
:103C900099E00E941C0F81E08093E9098CE38093F6
:103CA000E7098093E60983E1F82EF092E80965EFD1
:103CB00071E082EE99E00E94350F10910F011130F2
:103CC00009F04AC040E052E064E170E087E590E02E
:103CD0000E94EE0B4BEF51E064E170E089E690E06A
:103CE0000E94EE0B01E027E04BE063E170E08CE521
:103CF00090E00E944C0C80E68093E7098093E609EF
:103D0000F092E8091092E9098091E10990E00196AA
:103D10000E94130F1093E9098CE38093E7098093C5
:103D2000E6098FE18093E8096DEF71E082EE99E09A
:103D30000E94350FE0910E016ECF6091DF09709106
:103D4000E00982EE99E00E941C0F61EF71E082EEC3
:103D500099E00E94350F9FCF8091E10990E0019694
:103D60000E94130FD9CF6AE172E082EE99E00E94BF
:103D7000350F6CE272E082EE99E00E94350F6EE33F
:103D800072E082EE99E00E94350F6CE472E082EE00
:103D900099E00E94350F6CE572E082EE99E00E9496
:103DA000350F6EE672E082EE99E00E94350F92CEFA
:103DB00063E872E0F8CF8F929F92AF92BF92CF925A
:103DC000DF92EF92FF92CF93DF93EC0168817981CC
:103DD0008A819B81611571058105910521F464E259
:103DE00079ED8BE597E02DE133EF41E050E00E9463
:103DF000951F49015A019B01AC01A7EAB1E40E9459
:103E0000B41F6B017C01ACEEB4EFA50194010E94DC
:103E1000C21FC60ED71EE81EF91EF7FE06C081E0BF
:103E2000C81AD108E10880E8F80AC882D982EA8273
:103E3000FB82C701B6019F77DF91CF91FF90EF9092
:103E4000DF90CF90BF90AF909F908F9008958F920A
:103E50009F92AF92BF92CF92DF92EF92FF926091CA
:103E6000100170911101809112019091130161155F
:103E700071058105910521F464E279ED8BE597E008
:103E80002DE133EF41E050E00E94951F49015A01B6
:103E90009B01AC01A7EAB1E40E94B41F6B017C0155
:103EA000ACEEB4EFA50194010E94C21FC60ED71E4E
:103EB000E81EF91EF7FE06C081E0C81AD108E10825
:103EC00080E8F80AC0921001D0921101E09212012C
:103ED000F0921301C701B6019F77FF90EF90DF903A
:103EE000CF90BF90AF909F908F90089560931001F6
:103EF0007093110180931201909313010895F99921
:103F0000FECF92BD81BDF89A992780B50895262FDE
:103F1000F999FECF1FBA92BD81BD20BD0FB6F894AE
:103F2000FA9AF99A0FBE01960895052E97FB1EF492
:103F300000940E94AC1F57FD07D00E94C71F07FCCA
:103F400003D04EF40C94AC1F5095409530952195BC
:103F50003F4F4F4F5F4F08959095809570956195B5
:103F60007F4F8F4F9F4F08950E94E91FA59F900D8F
:103F7000B49F900DA49F800D911D11240895B7FF4B
:103F80000C94B41F0E94B41F821B930B0895A1E2EE
:103F90001A2EAA1BBB1BFD010DC0AA1FBB1FEE1FC3
:103FA000FF1FA217B307E407F50720F0A21BB30B0E
:103FB000E40BF50B661F771F881F991F1A9469F78A
:103FC00060957095809590959B01AC01BD01CF01E6
:103FD0000895A29FB001B39FC001A39F700D811DE2
:103FE0001124911DB29F700D811D1124911D089502
:103FF000991B79E004C0991F961708F0961B881F3B
:104000007A95C9F780950895AA1BBB1B51E107C09B
:10401000AA1FBB1FA617B70710F0A61BB70B881F58
:10402000991F5A95A9F780959095BC01CD010895E7
:10403000EE0FFF1F0590F491E02D0994F894FFCF47
:10404000FFFFFFFF00E10000000000000000000291
:104050000100000000C18081000000000000006F2E
:10406000084E0990088508D6089408B20800000098
:10407000009C0C4208FD0CFC0C000000009B0C0D89
:104080000A0031205F5F5F5F5F5F5F5F5F5F5F5F61
:104090005F5F5F5F5F20002C00636F6E737420753D
:1040A000696E7431365F742062656570426F785B4B
:1040B0005D2050524F474D454D203D207B002C2028
:1040C00000544F4E45535F454E44207D3B004245D2
:1040D0004550424F5800506C61792066726F6D20D8
:1040E00073746172740A00506C61792066726F6D2E
:1040F00020637572736F720A005361766520746F66
:1041000020454550524F4D0A004C6F616420667245
:104110006F6D20454550524F4D0A00436C656172EA
:1041200020454550524F4D0A0054656D706F3A203E
:1041300000206D730052616E67653A2000436C6524
:1041400061722054756E650A4578706F72742074C0
:104150006F2053657269616C0A00412B4C2020531B
:104160006872696E6B206E6F74650A00412B522075
:1041700020457874656E64206E6F74650A00412B6B
:104180005520204D6F76652075700A00412B442024
:10419000204D6F766520646F776E0A00422B4C20AD
:1041A0002044656C657465206E6F74650A00422B4F
:1041B000522020496E736572742061206E6F7465A1
:1041C0000A0A00546F20696E636C75646520612073
:1041D000726573740A6E6F74652C20757365204167
:1041E0002B4C20746F0A736872696E6B2061206EAD
:1041F0006F726D616C0A6E6F746520646F776E20EC
:10420000746F207A65726F0A6C656E6774682074CB
:104210006F20746F67676C650A6265747765656E99
:10422000206D6F6465732E0052616E6765200030EB
:0242300000008C
:00000001FF
