:100000000C94F2060C941A070C941A070C941A0715
:100010000C941A070C941A070C941A070C941A07DC
:100020000C941A070C941A070C94110F0C94800F5F
:100030000C941A070C941A070C941A070C941A07BC
:100040000C941A070C941A070C941A070C941A07AC
:100050000C941A070C941A070C941A070C94B211FA
:100060000C941A070C941A070C941A070C941A078C
:100070000C941A070C941A070C941A070C941A077C
:100080000C94FC110C941A070C941A070C941A0780
:100090000C941A070C941A070C941A070C941A075C
:1000A0000C941A070C941A070C941A0703081F05DE
:1000B0001F1F151B1F11111F110E1F15111F0501E9
:1000C0001F111D1F041F001F0010101F1F041B1FE6
:1000D00010101F061F1F011F1F111F1F05071F31B3
:1000E0001F1F051B17151D011F011F101F0F100FCC
:1000F0001F0C1F1B041B071C071915130C121E1FB6
:10010000120C1E12120C121F0C1A14041F052E2A98
:100110001E1F021C001D00201D001F041A011F00CD
:100120001E041E1E021E1E121E3E120C0C123E1E2D
:10013000020614120A020F121E101E0E100E1E08C6
:100140001E1A041A2E281E1A12161F111F001F0035
:100150001D151711151F07041F17151D1F151D014C
:10016000011F1F151F17151F001700001000081C86
:1001700008201800080B0002020201000904000018
:100180000102020000052400100105240101010400
:10019000240206052406000107058103100040091A
:1001A000040100020A0000000705020240000007E7
:1001B0000583024000000403090412010002EF025B
:1001C0000140412336800001010203014172647540
:1001D000696E6F204C4C430041726475696E6F20EC
:1001E0004C656F6E6172646F00D5F08D14A1C8818B
:1001F000CFD9F1AF20000C1420283003051F0E04C6
:100200000305040E1F30050E1111110E0000000031
:1002100000000000000000000000000000000000DE
:1002200000000000000000000000000000000000CE
:10023000000000000000000E111111111111111128
:10024000110E00000000000000000000000000008F
:10025000000000000000000000000000000000009E
:10026000000000000000000E1111111111111111F8
:10027000111111111111110E0000000000000000F9
:10028000000000000000000000000000000000006E
:10029000000000000000000E1111111111111111C8
:1002A000111111111111111111111111110E000063
:1002B000000000000000000000000000000000003E
:1002C000000000000000000E111111111111111198
:1002D000111111111111111111111111111111110E
:1002E0001111110E000000000000000000000000CD
:1002F000000000000000000E111111111111111168
:1003000011111111111111111111111111111111DD
:100310001111111111111111110E00000000000036
:10032000000000000000000E111111111111111137
:1003300011111111111111111111111111111111AD
:100340001111111111111111111111111111110EA0
:10035000000000000000000E111111111111111107
:10036000111111111111111111111111111111117D
:10037000111111111111111111111111111111116D
:1003800011111111110E0030050E1115110E000082
:10039000000000000000000000000000000000005D
:1003A000000000000000000000000000000000004D
:1003B0000000000000000000000E111515151515B5
:1003C0001515110E000000000000000000000000E4
:1003D000000000000000000000000000000000001D
:1003E0000000000000000000000E11151515151585
:1003F0001515151515151515110E00000000000036
:1004000000000000000000000000000000000000EC
:100410000000000000000000000E11151515151554
:100420001515151515151515151515151515110E87
:1004300000000000000000000000000000000000BC
:100440000000000000000000000E11151515151524
:10045000151515151515151515151515151515154C
:1004600015151515110E0000000000000000000019
:100470000000000000000000000E111515151515F4
:10048000151515151515151515151515151515151C
:1004900015151515151515151515110E000000006B
:1004A0000000000000000000000E111515151515C4
:1004B00015151515151515151515151515151515EC
:1004C00015151515151515151515151515151515DC
:1004D000110E000000000000000E11151515151575
:1004E00015151515151515151515151515151515BC
:1004F00015151515151515151515151515151515AC
:10050000151515151515110E000E1F1F1F0E0000D5
:1005100000000000000000000000000000000000DB
:1005200000000000000000000000000000000000CB
:100530000000000000000000000E1F1F1F1F1F1FF3
:100540001F1F1F0E00000000000000000000000040
:10055000000000000000000000000000000000009B
:100560000000000000000000000E1F1F1F1F1F1FC3
:100570001F1F1F1F1F1F1F1F1F0E00000000000056
:10058000000000000000000000000000000000006B
:100590000000000000000000000E1F1F1F1F1F1F93
:1005A0001F1F1F1F1F1F1F1F1F1F1F1F1F1F1F0E6C
:1005B000000000000000000000000000000000003B
:1005C0000000000000000000000E1F1F1F1F1F1F63
:1005D0001F1F1F1F1F1F1F1F1F1F1F1F1F1F1F1F2B
:1005E0001F1F1F1F1F0E0000000000000000000062
:1005F0000000000000000000000E1F1F1F1F1F1F33
:100600001F1F1F1F1F1F1F1F1F1F1F1F1F1F1F1FFA
:100610001F1F1F1F1F1F1F1F1F1F1F0E0000000077
:100620000000000000000000000E1F1F1F1F1F1F02
:100630001F1F1F1F1F1F1F1F1F1F1F1F1F1F1F1FCA
:100640001F1F1F1F1F1F1F1F1F1F1F1F1F1F1F1FBA
:100650001F0E000000000000000E1F1F1F1F1F1FA5
:100660001F1F1F1F1F1F1F1F1F1F1F1F1F1F1F1F9A
:100670001F1F1F1F1F1F1F1F1F1F1F1F1F1F1F1F8A
:100680001F1F1F1F1F1F1F0E0030050E1F1F1F0ED5
:10069000000000000000000000000000000000005A
:1006A000000000000000000000000000000000004A
:1006B00000000000000000000000000E1F1F1F1FB0
:1006C0001F1F1F1F1F0E0000000000000000000081
:1006D000000000000000000000000000000000001A
:1006E00000000000000000000000000E1F1F1F1F80
:1006F0001F1F1F1F1F1F1F1F1F1F1F0E0000000097
:1007000000000000000000000000000000000000E9
:1007100000000000000000000000000E1F1F1F1F4F
:100720001F1F1F1F1F1F1F1F1F1F1F1F1F1F1F1FD9
:100730001F0E00000000000000000000000000008C
:1007400000000000000000000000000E1F1F1F1F1F
:100750001F1F1F1F1F1F1F1F1F1F1F1F1F1F1F1FA9
:100760001F1F1F1F1F1F1F0E0000000000000000A2
:1007700000000000000000000000000E1F1F1F1FEF
:100780001F1F1F1F1F1F1F1F1F1F1F1F1F1F1F1F79
:100790001F1F1F1F1F1F1F1F1F1F1F1F1F0E0000B8
:1007A00000000000000000000000000E1F1F1F1FBF
:1007B0001F1F1F1F1F1F1F1F1F1F1F1F1F1F1F1F49
:1007C0001F1F1F1F1F1F1F1F1F1F1F1F1F1F1F1F39
:1007D0001F1F1F0E000000000000000E1F1F1F1F24
:1007E0001F1F1F1F1F1F1F1F1F1F1F1F1F1F1F1F19
:1007F0001F1F1F1F1F1F1F1F1F1F1F1F1F1F1F1F09
:100800001F1F1F1F1F1F1F1F1F0E00FA00C800AF52
:100810000096007D0064004B0032001F002100257F
:100820000029002C00310037003E004100490052F1
:1008300000570062006E007B003E004100490052FC
:1008400000570062006E007B0083009300A500AF9C
:1008500000C400DC00F7007B0083009300A500AF1C
:1008600000C400DC00F700060126014A015D018892
:1008700001B801EE01F700060126014A015D018879
:1008800001B801EE010B024B029302BA0210037091
:1008900003DC03EE010B024B029302BA0210037059
:1008A00003DC0317049704270575052006E006B846
:1008B00007DC0317049704270575052006E006B832
:1008C000072D082D094D0AEA0A400CC00D6F0FB81C
:1008D000072D082D094D0AEA0A400CC00D6F0F5A6A
:1008E000105B129A14D4158018801BDE1E6F0F5AED
:1008F000105B129A14D4158018801BDE1EB420B52C
:10090000243429A72B00310037BC3D804000000073
:1009100000000000000000000000000000000000D7
:1009200000000000000000000000000000000000C7
:1009300000000000000000000000000000000000B7
:1009400000000000000000000000000000000000A7
:100950000000000000000000000000000000000097
:100960000000000000000000000000000000000087
:1009700000000000000000000000101010102020F7
:1009800020202040C0800000000000000000000087
:100990000000000000000080C02030101010101077
:1009A000E000000000000000000000000000000067
:1009B0000000000000000000000000000000000037
:1009C0000000000000000080C06020206040C08067
:1009D0008000000000000000000000000000000097
:1009E0000000000000000000000000000000000007
:1009F0000000000000000080C040602010100808C7
:100A000004040202010000000000000000000000D9
:100A1000000000000000FE030000606060505058BD
:100A20004F404040404040808000000000E03018CF
:100A300008088888D8300000000000FC068281C1C8
:100A4000710F0000000002031CE000C04040404065
:100A5000613E0000000000000000000000000000F7
:100A60000000000000000000000000000000000086
:100A7000000000000000000001010101010181816E
:100A80004141212111090B06060000000000000071
:100A90000000000000001FF0000000000000000047
:100AA000000000000000000080837E0000031E1193
:100AB0002141414040408080808080838C98B0D02C
:100AC000101010101014080000000FF800000000B3
:100AD0000000000000000000000000000000000016
:100AE0000000000000000000000000000000000006
:100AF000000000000000000000F8848203010000F4
:100B000000000000000000000000000000000000E5
:100B100000000000080C080F0C0808080404040476
:100B200002020202020202020100000000000000B4
:100B3000000000000000000000000080C0404040B5
:100B4000404040C0800000000000000300000000A2
:100B50000000000000000000000000000000000095
:100B60002040C08080C06030180C0C0000000000E5
:100B70000000000000000000000000804121211161
:100B80001111090503000000000000000000000032
:100B90000000000000000000000000000000000055
:100BA0000000000000000000000000000000000045
:100BB00000000000000000000000FC0300000060D6
:100BC000605050888F00000000000000000000000E
:100BD000F806010101010002020C18F0000000807B
:100BE00060380C0703060408081810100000000005
:100BF0000000000000000000FC02010000000000F6
:100C000000000000000000000000000000000000E4
:100C100000000000000000000000000000000000D4
:100C200000000000000000000000000000000000C4
:100C3000000000000000000000007F004040404035
:100C40004040404041633E000000000000000000C2
:100C50000103020408080808080C0603000000004D
:100C60000000000000000000000000000000000084
:100C700000000000000000000001060418202040D1
:100C8000C0000000000000000000000000000000A4
:100C90000000000000000000000000000000000054
:100CA0000000000000000000000000000000000044
:100CB0000000000000000000000000000000000034
:100CC0000000000000000000000000000000000024
:100CD0000000000000000000000000000000000014
:100CE0000000000000000000000000000000000004
:100CF00000000000000000000000000000000000F4
:100D00000000000000000000000000000021080FAB
:100D10000F08080006090B06000E03030E000F095A
:100D20000F06000F0F000F02030F000E0F090D003A
:100D30000E10BEBDBEBDBEBDBEBDBEBDBEBDBE00F5
:100D400000040004000400040004000400004E0835
:100D50000F0D0702000F050F0A000F0D0900020B0F
:100D60000D00020B0D00000000000F0D0702000F28
:100D70000F0808000E03030E00030E0E0300000010
:100D800006090B06000F02030F00000000010F0F01
:100D9000010E03030E000F0D0702000F0D090E10C8
:100DA000A7C7A7C7A7C7A7C7A7C7A7C7A7000707FA
:100DB00007070707070707070707070024080E1F8D
:100DC0001F1F0E00000000000000000000001F0EAA
:100DD00004000000000000000000040E1F00040ECC
:100DE0001F00901211241FBECFEFDAE0DEBFCDBF8F
:100DF00012E0A0E0B1E0E0EAFFE302C005900D924E
:100E0000AA3EB107D9F729E0AAEEB2E001C01D92CF
:100E1000AF3EB207E1F716E0C2EFD6E004C021977B
:100E2000FE010E94C81FC13FD107C9F70E94ED1201
:100E30000C94CE1F0C940000809100030895480F7D
:100E4000592F511D1416150684F5803891056CF53F
:100E500097FF02C090E080E04138510514F040E86F
:100E600050E0481BFB01E770FF2721E001C0220F83
:100E7000EA95EAF777FF02C0695F7F4FFB0133E035
:100E8000F595E7953A95E1F7F695FE2FEE27F7955C
:100E9000E795E80FF91FE65EFC4F415030F0819175
:100EA000DF011197822B8C93F8CF08959091EA0976
:100EB000982329F49091E909982381E009F480E0CE
:100EC0000895FC0180911903882311F13FB7F8942C
:100ED00082E08093E9002091F200822F90E01816C2
:100EE000190614F481E090E0882339F0289844E64C
:100EF000409318034091F1004083222339F0209160
:100F0000F200211103C02BE62093E8003FBF0895B3
:100F10008FEF9FEF08952FB7F89483E08093E90057
:100F20009091E800892F807295FF04C09091F200A3
:100F300080E4891B2FBF08958091100381110DC09B
:100F400082E080930C0384E080930D0310920F03E2
:100F500010920E0381E0809310038CE093E00895DB
:100F60004091FA025091FB022091F8023091F9026F
:100F700042175307B4F49091E8009570E1F3909113
:100F8000E80092FD19C08093F1008091FA029091DF
:100F9000FB0201968F739927892B19F48EEF8093AA
:100FA000E8008091FA029091FB0201969093FB0277
:100FB0008093FA0281E0089580E00895DF92EF9235
:100FC000FF920F931F93CF93DF93D82E8A01EB01EB
:100FD0007B01E40EF51ECE15DF0559F0D7FE12C0D9
:100FE000FE0184910E94B00721968111F4CF0FEF8A
:100FF0001FEFC801DF91CF911F910F91FF90EF90EC
:10100000DF9008958881EECF0F931F93CF93DF93E6
:101010001F92CDB7DEB782E0898342E450E064E7F7
:1010200071E080E80E94DE070E949C07DC011296B6
:101030000D911C910115110589F0D801ED91FC91DC
:101040000280F381E02DBE016F5F7F4FC8010995DB
:1010500097FD04C0F80100851185ECCF89810F90C0
:10106000DF91CF911F910F910895615030F0209141
:10107000F100FC0120830196F8CF289884E6809344
:1010800018030895AF92BF92CF92DF92EF92FF9232
:101090000F931F93CF93DF936C017B018B01040FA0
:1010A000151FEB015E01AE18BF08C017D10759F03C
:1010B0006991D601ED91FC910190F081E02DC6017E
:1010C0000995892B79F7C501DF91CF911F910F9178
:1010D000FF90EF90DF90CF90BF90AF900895CF93A7
:1010E000DF931F92CDB7DEB76983DC01ED91FC91F0
:1010F0000280F381E02D41E050E0BE016F5F7F4F41
:1011000009950F90DF91CF91089583E08093E900D6
:101110008091F200882319F08AE38093E800089513
:101120000E948B0790E00895CF93DF931F92CDB775
:10113000DEB7FC018485958597FD08C02FEF3FEF52
:10114000358724870F90DF91CF910895CE010196C6
:101150000E946107019719F4898190E0F3CF8FEF26
:101160009FEFF0CF0F931F93CF93DF931F92CDB7D5
:10117000DEB78C01FC018485958597FF0BC0CE01FD
:1011800001960E946107019771F4898190E0F8014E
:1011900095878487F801848595850F90DF91CF919D
:1011A0001F910F9108958FEF9FEFF1CFFC01848580
:1011B000958597FD0BC09FB7F89482E08093E90076
:1011C0008091F2009FBF90E0019608959FB7F89438
:1011D00082E08093E9008091F2009FBF90E0089543
:1011E0003FB7F8948091F4029091F502A091F60235
:1011F000B091F70226B5A89B05C02F3F19F00196C4
:10120000A11DB11D3FBFBA2FA92F982F8827BC0160
:10121000CD01620F711D811D911D42E0660F771F88
:10122000881F991F4A95D1F708958F929F92AF9288
:10123000BF92CF92DF92EF92FF926B017C010E94EE
:10124000F0084B015C01C114D104E104F104B9F0D0
:101250000E94F008681979098A099B09683E734061
:101260008105910580F321E0C21AD108E108F10857
:1012700088EE880E83E0981EA11CB11CE4CFFF907D
:10128000EF90DF90CF90BF90AF909F908F90089598
:1012900065E070E080E090E00C9415098F929F92D9
:1012A000AF92BF92CF92DF92EF92FF920F931F9374
:1012B000CF93DF936C017B018A0180910B0188231E
:1012C00009F45CC080911903882309F457C0809108
:1012D000FE0280FF05C08091E00082608093E00004
:1012E000E801B12C8AEFA82E93E0892E2AE3922EF2
:1012F000209711F4BB20D9F10E948B0781110AC0FD
:10130000AA94AA20D9F161E070E080E090E00E9408
:101310001509EECF8C171D0611F00CF08C2F9FB71E
:10132000F8948092E9002091E80025FD02C09FBF5B
:10133000DFCF282F30E0C21BD30BF701815020F004
:1013400041914093F100FACFE20EF31EBB2021F051
:101350009092E800B12CEBCF8091E80085FDE7CFBB
:101360009092E800BB24B394209709F3F3CF5D98E3
:1013700084E68093FD02101611063CF081E090E0B7
:10138000F6019383828310E000E0C801DF91CF91E2
:101390001F910F91FF90EF90DF90CF90BF90AF9093
:1013A0009F908F9008956F927F928F929F92AF92AD
:1013B000BF92CF92DF92EF92FF920F931F93CF9342
:1013C000DF934C01CB013A017C2DFA0164913196F7
:1013D0005491F2E06F0E711CC62FD0E0211102C0B3
:1013E000EE2009F1E1E0F0E0352F377011F4F0E084
:1013F000E0E0A52FA695A695A695AE0FBF2FB11D2F
:10140000AC9FF001AD9FF00DBC9FF00D1124733027
:1014100009F08BC0EE0FFF1F2E9FD0012F9FB00D44
:1014200011246A0E7B1ED401AC0FBD1F1A161B06B9
:101430000CF06CC020E8821691040CF067C09C018F
:10144000250F311D121613060CF060C08034910573
:101450000CF05CC06114710409F458C0382F377067
:10146000FC0197FD379623E0F595E7952A95E1F77E
:101470002E2F97FF04C0332311F02FEF2E0FEE27EE
:10148000FF27E819F90997FC02C0F0E0E0E090E8D6
:101490009819A038B1050CF4962F9E1BA22F022E8E
:1014A000000CBB0B4A2F40952F3F0CF040E0DD2491
:1014B000D394852F877009F4D12C5695569556955F
:1014C000D50EAD0DB11D19971CF058E0D52ED21ACE
:1014D000D41A240F50E82503D0011124A80DB91DFA
:1014E000AE0FBF1F649FE00DF11D11246E0E7F1E15
:1014F000E32E032E000CFF08733009F423C108F516
:10150000713009F4D6C0723009F484C0DF91CF91F4
:101510001F910F91FF90EF90DF90CF90BF90AF9011
:101520009F908F907F906F9008950115110509F499
:1015300073CFEE9ED001EF9EB00D11240A0F1B1F3A
:101540006BCF7A3FB1F10D2D020F7B3FF9F62017DB
:10155000E9F2BD01665E7C4FD12CC12CC91608F0A2
:10156000A2C0F301EC0DFD1DE491F0E0AF010E2CE3
:1015700002C0440F551F0A94E2F727FD06C0FB0185
:101580008081142F109581238083332361F02730CD
:1015900054F45B01F0E8AF0EB11C452F4095F50106
:1015A000808184238083FFEFCF1ADF0A6F5F7F4F34
:1015B000D5CF0D2D020F201709F4A8CFBD01665E0F
:1015C0007C4FD12CC12CC91608F067C0F301EC0D7B
:1015D000FD1DE491F0E0AF010E2C02C0440F551F39
:1015E0000A94E2F727FD04C0FB018081842B8083ED
:1015F000332351F0273044F45B01F0E8AF0EB11C07
:10160000F5018081852B8083FFEFCF1ADF0A6F5FA2
:101610007F4FD9CF6FEF70E0032E02C0660F771FA8
:101620000A94E2F760957095972E8D2C820E2815FE
:1016300009F46CCF8D01065E1C4FD12CC12CC9164C
:1016400030F5F301EC0DFD1DE491F0E0AF010E2C3F
:1016500002C0440F551F0A94E2F727FD05C0F801A8
:1016600080818623842B8083332359F027304CF4E8
:101670005801F0E8AF0EB11CF50180818921852B5E
:101680008083FFEFCF1ADF0A0F5F1F4FD8CF2F5F86
:101690006C0E7D1EA058BF4FCACF2F5F6C0E7D1EF3
:1016A000A058BF4F88CF2F5F6C0E7D1EA058BF4F34
:1016B0004ECF0E0F1F1F8D2D820F281709F426CF36
:1016C000BD01665E7C4FD12CC12CC91698F5F8017E
:1016D000EC0DFD1DA490B12C0E2C02C0AA0CBB1C5D
:1016E0000A94E2F7A094B094F301EC0DFD1D8490F0
:1016F000912C0E2C02C0880C991C0A94E2F727FD4D
:1017000008C0FB014081E42FEA214E2F4829FB014C
:101710004083332349F027303CF4FB01E058FF4F6E
:10172000A080BA20B928B082FFEFCF1ADF0A6F5F1E
:101730007F4FCBCF2F5F6C0E7D1E0C0F1D1FA0584F
:10174000BF4FBBCFE92EF12CE60DF71DA65EBC4FB7
:1017500060E870E06E197F09CE19DF09AE01440F11
:10176000551FC1E0D0E07E01032E01C0EE0C0A94AB
:10177000EAF7192F0D2D892E932ECF93DF93ED01CC
:10178000EF96EF962296A590C590992059F0AE9CC1
:101790005001CE9C600127302CF4F880D094FD20BD
:1017A000FB28F99222233AF0FC90C094FC20FA28FE
:1017B000FD920C94DC0B11961A9529F70A9551F0BD
:1017C000182D23951124E40FF11DA60FB11DC60F8E
:1017D000D11DD9CFDF91CF91112498CECF92EF9226
:1017E0000F931F9322E0C22EE12C10E000E020E0D6
:1017F0000E94D3091F910F91EF90CF9008958FB160
:101800008095807F669B88601C9B8460089520E1A2
:1018100091E061FD94E060FD990F62FD9295687F13
:10182000269FD0011124A80FA65EBC4F8C9140FFCB
:1018300003C0892B8C93089590958923FBCFDF9269
:10184000EF92FF920F931F93CF93DF937C01EB01F5
:10185000D22E8B01040F111DC8010134110514F0A3
:1018600080E490E0C817D9075CF480E8E816F1043A
:1018700028F44D2DBE01C7010E94070C2196ECCF24
:10188000DF91CF911F910F91FF90EF90DF9008951E
:10189000EF92FF920F931F93CF93DF937C018B0105
:1018A000C42FD22F0E941F07B8016D0F711D615008
:1018B00071096034710524F44C2FC7010E941F0781
:1018C00021E04D2FB801C7010E941F0CC7018C0FEA
:1018D000911D21E04D2FB8010197DF91CF911F910C
:1018E0000F91FF90EF900C941F0C0895CF92EF9200
:1018F0000F931F93CF93DF93EC016A3079F48D81BE
:101900008C838E819985890F8E8381E090E0DF91B1
:10191000CF911F910F91EF90CF9008959C816032ED
:1019200019F49E5F9C83F1CF6E37D9F3262F6E8119
:101930006F5F2A3398F4203398F52B32A9F140F4E5
:10194000213281F198859D5F8C81890F8C83DDCF59
:101950002C3211F12E32B1F72FE309C0213490F36C
:101960002B35E0F08FE9820F27548A3158F7062E85
:10197000000C770B892F990F990B3F814AEFC42EEA
:10198000313011F03BEFC32EE12C10E000E04CEAC7
:1019900050E00E94D309D6CF21E4E9CF2154E7CF0C
:1019A0002C5FE5CF2EE3E3CF20E4E1CF089590E074
:1019B00080E0089520910903E0910703F091080366
:1019C000CF0102969093080380930703222319F016
:1019D000859194910895808191810895CF92DF92AD
:1019E000EF92FF92CF93DF930E94DA0C811520E8EB
:1019F000920791F4809171008D7F80937100109215
:101A00009100469847981092EC02DF91CF91FF9099
:101A1000EF90DF90CF90089521E02093EC02813089
:101A200020E8920751F4809105039091060390936A
:101A30000803809307030E94DA0C97FD05C02091EC
:101A4000EB02222309F45AC02091EA02211156C068
:101A500021E02093ED02813020E8920710F090E021
:101A600080E0EC01DF77209709F04BC081E08093A4
:101A7000EE0246983FE9C32E3FE0D32EE12CF12C35
:101A8000CAEFD0E0E0917807F091790709958111CC
:101A900003C081E08093EE028091ED02882329F05B
:101AA0008091EE02882309F43FC047980E94DA0C27
:101AB0000097F1F19C01DE010E94991FDC01CB012E
:101AC00029E0B595A795979587952A95D1F7109216
:101AD00090002AE020939100D0929900C092980043
:101AE0008093EF029093F002A093F102B093F20280
:101AF0008091710082608093710087CF1092ED0217
:101B0000AACF9E0150E040E060E472E48FE090E0F4
:101B10000E94451F69017A0181E0C81AD108E108D5
:101B2000F1081092EE02AECF4699BFCF479ABECFD2
:101B30008FEF9FEFDC01CBCFDC018D919C91119752
:101B4000811520E8920751F4E091D30924E0E29F47
:101B5000F0011124E258F84F928381838091D409D7
:101B60009091D50911969C938E9312968D919C918C
:101B70001397892B41F48091D7099091D809139636
:101B80009C938E93129708958091D7099091D809CC
:101B9000EAE7F7E01282118294838383349629E086
:101BA000E23DF207B9F783E08093D90980E090E83D
:101BB00090937C0780937B07E3E8F8E0859194910C
:101BC0009093D5098093D4091092D30908957F7713
:101BD0009FE0899FA001112430E020E0FA01E20F8C
:101BE000F31FEE0FFF1FE55EF74FA591B4916A1743
:101BF0007B0791F4211109C09EE1899FF001112416
:101C0000E55EF74F859194910895F9013197E40FBE
:101C1000F51FEE0FFF1FF4CF2F5F3F4F2F30310521
:101C2000E9F680E090E008957F779FE0899FA0012A
:101C3000112430E020E0FA01E20FF31FEE0FFF1F46
:101C4000E55EF74FA591B4916A177B07A1F42E309A
:101C500049F49EE1899FF0011124E95CF74F8591D9
:101C600094910895F9013196E40FF51FEE0FFF1FCF
:101C7000E55EF74FF4CF2F5F3F4F2F303105D9F698
:101C800080E090E008957F779FE0899FA001112474
:101C900030E020E0822FFA01E20FF31FEE0FFF1F6A
:101CA000E55EF74FA591B4916A177B0741F42230A6
:101CB00010F4835008952C3038F08B5008952F5F26
:101CC0003F4F2F30310531F780E008957F779FE057
:101CD000899FA001112430E020E0922FFA01E20F49
:101CE000F31FEE0FFF1FE55EF74FA591B4916A1742
:101CF0007B0729F4990F990F8AE3891B08952F5FB9
:101D00003F4F2F30310549F780E00895CF93DF939F
:101D1000EC0182E390E00E942F1F8883CE01DF91C7
:101D2000CF910895FB0101900020E9F73197AF01B1
:101D3000461B570BDC01ED91FC910280F381E02DF5
:101D400009948F929F92AF92BF92EF92FF920F935E
:101D50001F93CF93DF93CDB7DEB7A1970FB6F8945B
:101D6000DEBF0FBECDBF7C01FA01CB0119A222302C
:101D700008F42AE08E010F5D1F4F822E912CB12CAA
:101D8000A12CBF01A50194010E94771FF901CA018E
:101D90006A300CF5605DD8016E938D01232B242BE6
:101DA000252B79F790E080E0109721F0BD01C70165
:101DB0000E94920EA1960FB6F894DEBF0FBECDBF63
:101DC000DF91CF911F910F91FF90EF90BF90AF9057
:101DD0009F908F900895695CDECFAC01990F660BE0
:101DE000770B2AE08AED99E00C94A10EAB0170E02C
:101DF00060E02AE00C94A10ECF93DF93BC018AE14E
:101E000097E00E94920EEC016FE371E08AE197E0A7
:101E10000E94920E8C0F9D1FDF91CF9108950C941C
:101E2000920E1F920F920FB60F9211248F939F93D1
:101E30008091E1009091E100937F9093E10083FF16
:101E40000FC01092E90091E09093EB001092EC002B
:101E500092E39093ED001092190398E09093F000B4
:101E600082FF22C093E09093E9009091F2009923C1
:101E700019F09AE39093E8009091FD02992341F0C4
:101E80009091FD0291509093FD02911101C05D9AD5
:101E900090911803992341F09091180391509093D9
:101EA0001803911101C0289A84FF18C08091E200A4
:101EB0008E7E81608093E2008091E1008F7E80932E
:101EC000E1008091FE028E7E80618093FE029F91F0
:101ED0008F910F900FBE0F901F90189580FFF7CF36
:101EE0008091E2008E7E80618093E2008091E1002B
:101EF0008E7E8093E1008091FE028E7E8160E5CF30
:101F00001F920F920FB60F921124CF92DF92EF9291
:101F1000FF920F931F932F933F934F935F936F9372
:101F20007F938F939F93AF93BF93EF93FF93CF9341
:101F3000DF93CDB7DEB76C97DEBFCDBF1092E9005F
:101F40008091E80083FF25C068E0CE0145960E949D
:101F5000350882EF8093E8008D8987FF39C0909122
:101F6000E80090FFFCCF982F907609F034C19E894D
:101F70004F89588D2F89F88C911131C0803861F5C7
:101F80008091FF028093F1001092F1008EEF809318
:101F9000E8006C960FB6F894DEBF0FBECDBFDF91A0
:101FA000CF91FF91EF91BF91AF919F918F917F91D1
:101FB0006F915F914F913F912F911F910F91FF90E2
:101FC000EF90DF90CF900F900FBE0F901F9018955D
:101FD0009EEF9093E800C7CF1092F100D5CF9130DB
:101FE00059F48111D3CF4130510581F68091FF0220
:101FF0008D7F8093FF02CACF933049F48111C6CF01
:102000004130510519F68091FF028260F2CF953080
:1020100041F48091E80080FFFCCF20682093E3002A
:10202000B5CF963009F0A9C00B8D1C8D22E010921F
:10203000E9001092FB021092FA02F2122EC01092E6
:10204000F9021092F8020E9404081F8299E0998315
:10205000FA8291E09E8390EA98879AEF998720917F
:10206000FA023091FB02275F3F4F3C832B838D8325
:102070001092E9001092FB021092FA021093F902FA
:102080000093F80249E050E0BE016F5F7F4F80E0AF
:102090000E94DE070E94040879CF1093F902009392
:1020A000F8020E949C07DC0112960D911C9101150B
:1020B000110509F451C1D801ED91FC910480F5811D
:1020C000E02DBE016B5E7F4FC8010995009709F0B6
:1020D0003EC1F80100851185EACFF3E0FF120EC082
:1020E0008F89882309F440C0823061F440E860E1C0
:1020F00088ED91E00E945D12811148CF81E28093CA
:10210000EB0047CF813029F440E86BE08CEC91E0A4
:10211000F1CF833099F70E949C07DC011296ED9075
:10212000FC908E010F5F1F4F6801E114F10479F0FC
:10213000D701ED91FC910680F781E02DB801C70130
:102140000995080F111DF701E084F184EECFD80145
:102150001C92F60101900020E9F73197BF016C193C
:102160007D0940E0C601C6CF66EB71E0FB014491FA
:1021700050E080E80E94DE0709CF973009F4BECF17
:10218000983021F481E08093F10000CF993009F07C
:10219000FDCE837009F0B2CFE5E1F1E081E031E0FE
:1021A00096E32191222371F08093E9003093EB00B4
:1021B000DF0111972C912093EC009093ED008F5F3D
:1021C000873079F78EE78093EA001092EA008F89D2
:1021D00080931903DBCE8B8D9C8D1092E9001092B9
:1021E000FB021092FA029093F9028093F802898D13
:1021F000811192C08E899D89913A49F4813209F00A
:102200007DCF47E050E064E071E080E0B3CF9132F1
:1022100009F074CF833269F48F89988DB0E0A0E023
:102220008093000190930101A0930201B0930301F8
:10223000ADCE803269F48091E80082FFFCCF67E088
:1022400084E091E00E9435088BEF8093E8009ECEF9
:10225000823209F09BCE8F8980930B01EEEFFFE76E
:10226000859194918B3F9C4D51F1E0E0F8E0809195
:10227000040190910501A0910601B0910701803BF6
:102280009440A105B105F1F480910B0180FD1AC0C5
:10229000EE3F8AE0F80789F587E797E79183808327
:1022A000809160008093FC0288E19BE00FB6F89477
:1022B000A895809360000FBE9093600067CEEEEF0C
:1022C000FAE0D5CF808191818737974709F05ECEBC
:1022D000A895809160008861809360008091FC02E5
:1022E00080936000EE3F2AE0F20789F08091FE0AB9
:1022F0009091FF0A9183808349CE808191818737B5
:10230000980751F29093FF0A8093FE0AC5CF10926E
:10231000FF0A1092FE0A3ACE0E949C07DC01129638
:102320000D911C910115110509F4E8CED801ED912C
:10233000FC910190F081E02DBE016B5E7F4FC801E2
:102340000995811123CEF80100851185EBCF181670
:1023500019060CF41BCED2CEF1E0FF12BECE6AEB12
:1023600071E004CF1F920F920FB60F9211242F939A
:102370003F938F939F93AF93BF938091010390916D
:102380000203A0910303B09104033091F30223E010
:10239000230F2D3758F50196A11DB11D2093F3028F
:1023A0008093010390930203A0930303B09304036B
:1023B0008091F4029091F502A091F602B091F7029B
:1023C0000196A11DB11D8093F4029093F502A09394
:1023D000F602B093F702BF91AF919F918F913F9119
:1023E0002F910F900FBE0F901F90189526E8230F86
:1023F0000296A11DB11DD2CF1F920F920FB60F9260
:1024000011242F933F934F935F936F937F938F93F9
:102410009F93AF93BF93EF93FF938091EF029091BF
:10242000F002A091F102B091F202892B8A2B8B2B42
:1024300009F440C08091EE0281110BC088B190E494
:10244000892788B98091ED02882319F088B18058D6
:1024500088B98091EF029091F002A091F102B091C1
:10246000F202181619061A061B069CF48091EF0258
:102470009091F002A091F102B091F2020197A109AE
:10248000B1098093EF029093F002A093F102B09310
:10249000F202FF91EF91BF91AF919F918F917F9148
:1024A0006F915F914F913F912F910F900FBE0F90C1
:1024B0001F9018950E94EE0CECCFEF92FF920F93B5
:1024C0001F93CF93DF93F82E192FE62E042F81E070
:1024D000860F880F0E94B00783E00E94B007CF2DBF
:1024E000D12FEC0EFD2EF11CCE15DF05B9F007FF44
:1024F00013C0FE0184910E94B007182F80E00E9453
:10250000B007812321968111EFCFDF91CF911F91E9
:102510000F91FF90EF9008958881EDCF81E0F5CF86
:10252000EAE1F7E01382128288EE93E0A0E0B0E0E7
:1025300084839583A683B7838FE191E09183808321
:102540008FEF9FEF95878487E4EEF9E0158216827E
:1025500080E187831482138211868DE391E0918359
:1025600080838CE197E0909379078093780780E0EF
:1025700090E8909377078093760746983E9A47981D
:102580003F9AEAEDF9E01382128281E391E09183B0
:10259000808388E0818781E080871582168214829B
:1025A0008783EBE7F7E088E592E0DF019C011D926D
:1025B00021503040E1F71092D3091092D5091092C2
:1025C000D4091092D6098DE790E09093D8098093B2
:1025D000D70983E08093D9090895CF93DF9300D082
:1025E0001F92CDB7DEB7789484B5826084BD84B580
:1025F000816084BD85B5826085BD85B5816085BDFE
:1026000080916E00816080936E00109281008091B5
:10261000810082608093810080918100816080933D
:102620008100809180008160809380008091910082
:1026300082608093910080919100816080939100ED
:10264000809190008160809390008091C1008460AF
:102650008093C1008091C10082608093C10080910D
:10266000C10081608093C1008091C300816080932C
:10267000C3008091C00082608093C0008091C2003E
:1026800081608093C20080917A00846080937A0098
:1026900080917A00826080937A0080917A008160D4
:1026A00080937A0080917A00806880937A001092FB
:1026B00019031092FF021092FE028091D7008160F0
:1026C0008093D70080EA8093D80089B5806189BD66
:1026D00089B5826089BD09B400FEFDCF61E070E07C
:1026E00080E090E00E9415098091D8008F7C806185
:1026F0008093D8008091E000807F8093E0008091FB
:10270000E1008E7E8093E1008DE08093E200559A97
:10271000209A81EC80937C0085B1806F85B984B16B
:10272000877E84B984B1876E84B95E9A5F988AB1D6
:10273000806D8AB9769A6E9881B3806F81BB8998D3
:1027400080B38D7080BB80E58CBD81E08DBD0E9423
:1027500048095F9A0E9448095E985C98E9EEF1E0AA
:1027600084918EBD00000DB407FEFDCF319601E0CF
:10277000E63FF007A9F75C9A81E8809364008091B6
:1027800065008160809365000E94FF0B87FF15C084
:102790005C9885EA8EBD00000DB407FEFDCF5C9A03
:1027A0002E982F982D988091640080628093640009
:1027B00081E083BF889513BEFCCF809164008E7F3B
:1027C0008093640080917A00806480937A00809185
:1027D0007A0086FDFCCF00917800109179000E946C
:1027E000F008AB01BC01C801B0E0A0E0DC01992712
:1027F00088278C019D01040F151F261F371FC90153
:10280000B801209164002160209364006115710576
:102810008105910511F00E94261F3E9A3F9A81E0A2
:10282000809300030E94C40D8FB7F8944091010378
:102830005091020360910303709104038FBF809154
:10284000EC09942F981B8091ED09882359F09093FF
:10285000EE091092ED0980E090E0892B29F30E94A7
:102860000000E2CF2091EB09921740F49F5F92178E
:1028700090F781E083BF889513BEEDCF91E09093F0
:10288000ED094093EC092091E7093091E8092F5FA9
:102890003F4F3093E8092093E709EAE1F3E0811123
:1028A0008FEF002481938193819381930394D1F7D7
:1028B0008091E9098093EA090E94FF0B8093E9095E
:1028C00090910B03913009F486C098F0923009F48E
:1028D00091C0EAE1F3E081E0A0E0B8E000800EBC46
:1028E0008111012C1197A0FDFDCF0192B9F70DB414
:1028F000B2CF9091EA099095892371F080910A03F3
:10290000882319F08CE780930A0380910A038111D0
:1029100007C081E080930A0380910A03882341F075
:102920008F5F80930A038D3719F481E080930B0346
:102930004CEB5DE061E170E08FE290E00E94EE0B15
:102940004EE95DE06AE170E08BE290E00E94EE0B00
:102950004EE95DE06AE170E089E490E00E94EE0BF0
:1029600010910A03111111C04EE95DE06AE170E0B7
:102970008AE390E00E94EE0B4EE45DE06EE270E0D0
:102980008AE190E00E94EE0BA4CF40E35DE06AE1B3
:1029900070E08AE390E00E94EE0B4DE05DE06EE2B5
:1029A00070E08CE290E00E94EE0B812F6FE00E94BD
:1029B000A81F8370E82E0FE410E0F12CEF1409F447
:1029C00088CF41E061E370E0C8010E94070CF394F6
:1029D0000E5F1F4FF3CF9091EA099095892319F06C
:1029E00082E080930B034BE059E070E060E090E000
:1029F00080E0C8CF1091D3098091D609823308F0C6
:102A000078C3012F10E088E00E945607882349F11F
:102A1000F801EE0FFF1FEE0FFF1FDF01A658B84FA2
:102A200011968D919C91811520E8920739F4DF0170
:102A3000A258B84F12969C938E931197E658F84F70
:102A40008091D4099091D509928381838381948167
:102A5000892B31F58091D7099091D809948383838C
:102A60001FC00E94FF0B83FF1BC080E20E9456071D
:102A7000882309F44DC2000F111F000F111FF80128
:102A8000E658F84F838194812091D7093091D80975
:102A90002817390708F02DC2821B930B9483838378
:102AA00084E00E945607882309F4A4C282E491E0DE
:102AB0000E94FC0E0AE717E0F801618172818AE149
:102AC00097E00E94F60E67E571E08AE197E00E94C8
:102AD0000F0FD80113966D917C918AE197E00E94C7
:102AE000F60E6FE771E08AE197E00E940F0F0C5F2E
:102AF0001F4FE2EDF9E0E017F107F1F68FE791E003
:102B00000E94FC0E0E94FF0B83FDFEC00E94FF0B83
:102B100082FDFAC080E20E9456078823C1F0E0914E
:102B2000D309EE23A1F0E150E093D30914E0E19F33
:102B3000F0011124E658F84F34978581968181156C
:102B400020E89207C9F39093D5098093D40980E4D3
:102B50000E945607882309F43FC02091D3092439E5
:102B600038F52F5F2093D30930E0C901880F991FF2
:102B7000880F991FFC01E658F84F3497458156811C
:102B8000411560E85607C9F35093D5094093D4091D
:102B9000220F331F220F331FF901E658F84F21810E
:102BA00032812115304821F48558984F0E949C0DA0
:102BB0008091D4099091D509892B71F4E091D909BC
:102BC0008EE1E89FF0011124E75DF74F8591949124
:102BD0009093D5098093D40980E80E9456078823F2
:102BE00009F446C0E091D309E43970F594E0E99F17
:102BF000D0011124A258B84F11968D919C91811546
:102C0000904811F5EF5FE093D309B4E0EB9FF0013A
:102C10001124E658F84F349765817681611500E8F4
:102C20007007C9F38091D9090E94140E9093D509B9
:102C30008093D4098091D30914E0819FC0011124AD
:102C40008558984F0E949C0D8091D4099091D50988
:102C5000892B71F4E091D9092EE1E29FF001112452
:102C6000E75DF74F859194919093D5098093D409AE
:102C700080E10E945607882309F446C0E091D309F9
:102C8000E43970F534E0E39FD0011124A258B84F25
:102C900011968D919C918115904811F5EF5FE0930D
:102CA000D30954E0E59FF0011124E658F84F34971A
:102CB00065817681611580E87807C9F38091D9092B
:102CC0000E94E70D9093D5098093D4098091D30990
:102CD000A4E08A9FC00111248558984F0E949C0D42
:102CE0008091D4099091D509892B71F4E091D9098B
:102CF000BEE1EB9FF0011124E75DF74F85919491C0
:102D00009093D5098093D4090E94FF0B83FFE6C1FD
:102D100084E00E945607882309F4E0C181E0809393
:102D2000D6098091D609823368F40E94FF0B83FF95
:102D300009C00E94FF0B82FF05C08091D6098F5FFA
:102D40008093D6090E94FF0B83FF03C00E94FF0BF4
:102D500082FF1092D60940E860E170E090E080E0E8
:102D60000E941F0740E868E170E090E080E00E9468
:102D70001F0740E860E270E090E080E00E941F07DB
:102D800040E868E270E090E080E00E941F0740E8C1
:102D900060E370E090E080E00E941F078091E70907
:102DA0009091E80960E370E00E94B41F382EA09073
:102DB000D309B12CC501880F991F880F991FAC0149
:102DC0004658584F2A01A0E48A2E912C8091D309AD
:102DD00090E09C01245F3F4FA216B306F0F4D201AD
:102DE00011960D911C91129713966D907C90A816D8
:102DF000B90639F40115110521F40091D409109197
:102E0000D5090115B0E81B0709F041C425E243E0EC
:102E10006EE070E0C4010E94480C2091D30930E0BC
:102E20003901A1E06A1A7108C901880F991F880F3A
:102E3000991FFC01E658F84F2F014CEF4203800127
:102E4000439F100D11241B830A8360E4A62EB12C2E
:102E50001C0113E0211A31088091D3098751990B85
:102E6000681679060CF48FC5EA81FB81E40DF51D27
:102E7000E20DF31DC080D180F201319780809180F6
:102E8000B6018091D9090E94430E18160CF0F0C4C7
:102E9000F12C082F880F110B2F2D30E06091D709EE
:102EA0007091D809C4010E94B41F021713070CF4D3
:102EB00011C544E050E0421B530B9A01220F331F0F
:102EC000220F331F2034310588F48FEF860F482FEF
:102ED000440F480F440F475F5AEF5603C0011124B7
:102EE0008A0D9B1DB90102970E941F07F394F3946A
:102EF000D3CFF801E658F84F818192818130B0E854
:102F00009B0720F09F7792838183CACD9068FBCF87
:102F100080E40E9456078823D1F0000F111F000F94
:102F2000111FF801E658F84F838194812091D70949
:102F30003091D809A90163E0440F551F6A95E1F764
:102F40008417950708F0ACCD820F931F87CD80E8DA
:102F50000E945607882331F18091D4099091D509B8
:102F6000892B09F49DCD000F111F000F111F06586A
:102F7000184FF801618172818091D9090E94140E65
:102F8000D80112969C938E9311976091D4097091F9
:102F9000D5098091D9090E94140E9093D509809388
:102FA000D4097ECD80E10E945607882309F478CDAC
:102FB0008091D4099091D509892B09F471CD000F26
:102FC000111F000F111F0658184FF80161817281FF
:102FD0008091D9090E94E70DD80112969C938E9397
:102FE00011976091D4097091D5098091D9090E94F7
:102FF000E70DD3CF0E94FF0B82FF84CD80E40E94B7
:103000005607882381F1ABECB9E084E990E0E091C8
:10301000D309F0E08E179F0770F04D915D916D918F
:103020007C91139714964D935D936D937C931797B2
:1030300001971497ECCFDF01AA0FBB1FAA0FBB1F8C
:10304000A258B84F11968D919C91EE0FFF1FEE0F75
:10305000FF1FE658F84F928381838091D7099091A2
:10306000D8099483838380E20E945607882309F459
:1030700049CDE091D309EE2309F444CD8E2F90E0A1
:10308000DC01AA0FBB1FAA0FBB1FA558B84F85397B
:10309000910560F4019614964D915D916D917C912E
:1030A00017974D935D936D937D93F1CF8091D709E1
:1030B0009091D8099093D6098093D509E150E09377
:1030C000D30904E0E09FF0011124E658F84F818114
:1030D00092819093D5098093D40914CD88E00E9401
:1030E0005607882309F41DCE0E94FF0B82FD16CEE1
:1030F00018CE80910C01813009F4DDC0B8F0823027
:1031000009F4AFC2833009F026CE80E20E94560750
:10311000882319F082E080930C0180E40E94560716
:10312000882309F4AEC210920C01ABC280E20E9467
:103130005607882319F083E080930C0180E40E94F5
:103140005607882319F081E080930C0180E80E94E3
:103150005607882339F080910D01882319F081509A
:1031600080930D0180E10E945607882381F08091B1
:103170000D01843060F48230C9F5CE0101960E94C1
:10318000860E8981833619F483E080930D0184E0F3
:103190000E94560781111092D60988E00E945607B6
:1031A000882309F4D8CD80910D01823009F44CC0F8
:1031B000F8F48823A9F1813009F0CDCD8091D309AD
:1031C000F4E08F9FC00111248558984F2091710021
:1031D0002D7F209371001092090390930803809330
:1031E000070390930603809305032BC08F5FCDCF19
:1031F000833009F445C0843009F0ADCD82E390E01E
:103200000E942F1F843629F064E682E390E00E943A
:10321000371F80E280937A0782E080930D019BCD77
:10322000809171008D7F8093710010920903EBE70C
:10323000F7E0F0930803E0930703F0930603E093AD
:1032400005030E94EE0C87CD83E680937A073AE768
:10325000E32E37E0F32E02E310E0D701DD907D018D
:10326000C8010E942F1FD81621F06D2DC8010E94A1
:10327000371F0F5F1F4F0239B2E01B0771F76BCD8D
:10328000CE0101960E94860E8981833609F063CDB6
:103290002AE7E22E27E0F22E02E310E0C8010E94A6
:1032A0002F1FF70181937F010F5F1F4F0239F2E05B
:1032B0001F07A1F750CD80E20E94560700910F0131
:1032C000882321F0023011F410920C0180E40E9456
:1032D0005607882321F0023011F400930C0180E896
:1032E0000E945607882349F080910E01882329F017
:1032F000023019F4815080930E0180E10E9456073C
:10330000882341F180910E01833020F5023021F5B0
:103310008F5F80930E0188E00E945607882371F02A
:1033200082E0023009F09AC180910E01823009F4E6
:103330005CC108F493C1833009F45AC184E00E944F
:103340005607882309F407CD1092D60982E08093AE
:103350000F0101CD0230F9F280E20E945607882366
:1033600041F080910E01882309F464C0813009F492
:10337000A2C080E40E945607882369F280910E0162
:10338000882309F4F4C0813031F62091D90927301F
:1033900010F681E0820F8093D9095FE0259F9001AC
:1033A000112479016FE0E60EF11CAAE7B7E074E0A2
:1033B000179FC00111248658984F11966D917C91EA
:1033C00012977F776115710571F150E040E0142F7D
:1033D000FA01E20FF31FEE0FFF1FE55EF74FC590F6
:1033E000D490C616D70631F04F5F5F4F4F3051056E
:1033F00071F710E0F701E10FF11DEE0FFF1FE55E21
:10340000F74F4591549112965C934E931197FC019E
:10341000349745815681411510E85107C9F35093FF
:10342000D5094093D409149649E0A23DB40709F0A8
:10343000C4CF71CF2091D7093091D809EBE0F8E0E3
:1034400090E080E054915217130679F5863029F008
:10345000FC01EE0FFF1FE35FF74FE491F0E02E1742
:103460003F0709F486CFF093D809E093D7098AE79C
:10347000E82E87E0F82ED70113968D919C91B90123
:103480000E94B41F6E9FC0016F9F900D1124D70141
:1034900014969C938E931397B4E0EB0EF11C42EDBF
:1034A000E41649E0F40639F764CF01963296873086
:1034B000910541F65ECF8091D909282F30E0211582
:1034C000310509F456CF9FEF980F9093D9094FE03B
:1034D000849FC001112421503109429F7001439FF4
:1034E000F00C1124AAE7B7E054E0159FB0011124B5
:1034F0006658784F11964D915C9112975F77411500
:10350000510571F130E020E0B22EF901E80FF91F0A
:10351000EE0FFF1FE55EF74FC590D490C416D50699
:1035200031F02F5F3F4F2F30310571F7B12CF7018C
:10353000EB0DF11DEE0FFF1FE55EF74F2591349166
:1035400012963C932E931197FB0134972581368177
:10355000211540E83407C9F33093D5092093D409E5
:10356000149659E0A23DB50709F0C4CF02CFE09010
:10357000D709F090D809EBE0F8E090E080E03491D2
:103580003E151F0461F5882329F0FC01EE0FFF1F93
:10359000E75FF74FE491F0E0EE16FF0609F4BBCECB
:1035A000F093D809E093D7092AE737E0D9011396B9
:1035B0008D919C91B7010E94B41F6E9FC0016F9FB7
:1035C000900D1124D90114969C938E9313972C5F20
:1035D0003F4F42ED59E04217530741F79CCE019609
:1035E00032968730910559F696CE0E94C40DA6CE2C
:1035F00089E591E00E94FC0E0AE717E0D8011196D8
:103600006D917C9112971396ED90FC906115B0E846
:103610007B07F9F010F070E060E08AE197E00E942B
:10362000F60E67E571E08AE197E00E940F0FB7019F
:103630008AE197E00E94F60E6EE771E08AE197E07A
:103640000E940F0F0C5F1F4F22ED39E0201731074A
:10365000A9F681E891E00E94FC0E70CE80930F01E4
:103660006DCE80E20E945607882319F081E0809396
:103670000C0180E40E945607882319F083E08093B0
:103680000C0184E00E945607811163CB64CBB80122
:103690008091D9090E94430E18166CF5212CC82E72
:1036A000880FDD087401E2E0EE1AF108822D90E047
:1036B000C816D9060CF44EC024E030E0281B390BA4
:1036C000220F331F220F331F2034310588F46091FD
:1036D000D7097091D809C3010E94B41F6150462FC9
:1036E000440F460F440F475FB901C7010E941F07EF
:1036F00023942394DBCF882369F1212C282F3327AF
:1037000021950CF430956901740132E0E31AF10857
:10371000222D30E0C216D306ECF0245F3F4F220F7B
:10372000331F220F331F203431058CF46091D709E9
:103730007091D809C3010E94B41F6150462F440FF5
:10374000460F440F475FB901C7010E941F0723942A
:103750002394DECF6114710491F18091D30990E03C
:10376000A816B90611F548E1431510F16091D70983
:103770007091D809C3010E94B41FFF24FA94F60E79
:103780008091D909B80117FD4FC00E94660E682FBD
:1037900070E0CC24C394EF2C09E015E02F2D49E80C
:1037A00056E0C4010E94D3090AC08A159B05F0F2B5
:1037B0008091D4099091D50908171907B9F680911D
:1037C000D3098A151B04E9F458E15315D0F4E091AC
:1037D000D409F091D5092091D9096114710489F5B2
:1037E000BF01822F0E94660E682F70E0CC24C39424
:1037F000E12C09E015E020E045E052E0C4010E9420
:10380000D3096091D7097091D809C3010E94B41FF0
:1038100076E0679F800C911C11248FEFA81AB80ADC
:1038200094E0490E511CD2CA0E94660E682F70E0C7
:10383000CC24C394EF2C09E015E02F2D47E853E08A
:10384000B0CF6091D7097091D809C3010E94B41F0D
:10385000FF24FA94F60EBF01822F0E94660E682F95
:1038600070E0CC24C394EF2C09E015E02F2DC4CFD9
:10387000882381F1F12C682F772761950CF47095DE
:103880008B012F2D30E06091D7097091D809C401C8
:103890000E94B41F02171307ECF0245F3F4F220F62
:1038A000331F220F331F203431058CF48FEF860F26
:1038B000482F440F480F440F475F7AEF7603C0014B
:1038C00011248A0D9B1DB90102970E941F07F394D2
:1038D000F394D7CF77FC2BC06091D7097091D809AA
:1038E000C4010E94B41FFF24FA94F60E8091D909F6
:1038F000B601D7FC30C00E94660EE82FF0E0609160
:10390000D7097091D809C4010E94B41F0AEF0603B9
:10391000C0011124CC24C394EF2C09E015E02F2D15
:1039200049E856E0BF018A0D9B1D0E94D3096091B2
:10393000D7097091D809C4010E94B41F2AEF260349
:10394000B0011124A60EB71E31E0631A710844E0DD
:10395000441A510881CA0E94660EE82FF0E0609177
:10396000D7097091D809C4010E94B41F1AEF160339
:10397000C0011124CC24C394EF2C09E015E02F2DB5
:1039800047E853E0CFCF8091D609823309F062C077
:1039900006E310E020E040E470E060E0C8010E942F
:1039A0001F0C0F5F1F4F00381105A1F706E310E051
:1039B00021E048E070E060E0C8010E941F0C0F5F4A
:1039C0001F4F00381105A1F720E44AE470E060E0E1
:1039D00086E390E00E94480C8BEFC82EE12C10E0AB
:1039E00000E020E040E052E062E070E085E790E037
:1039F0000E94D30920E04BEF51E062E070E089E7DC
:103A000090E00E94D30988E38093DF098093DE0968
:103A100001E00093E0091092E1096EE871E08AED9F
:103A200099E00E940F0F1CE31093DF091093DE0949
:103A30008BE08093E0090093E10980910C018130D3
:103A400009F499C008F45BC0823009F43CC18330AA
:103A500009F45EC10FEF1FEF20E048E068E370E07B
:103A6000C8010E941F0C0F5F1F4F0D311105A1F7F8
:103A700010E000E021E047E069E370E0C8010E9447
:103A80001F0C0F5F1F4F0C311105A1F781E08093D0
:103A9000DF098093DE0989E38093E0091092E10950
:103AA0008091D309893030F468EE72E08AED99E0B4
:103AB0000E940F0F8091D309833630F468EE72E0D4
:103AC0008AED99E00E940F0F8091D30990E0019652
:103AD0000E94ED0E80E18093DF098093DE0989E387
:103AE0008093E00986E990E00E94ED0E40E06CE3EF
:103AF00070E08EE090E00E94070C0C94691466E977
:103B000071E08AED99E00E940F0F67EA71E08AED9B
:103B100099E00E940F0F1093DF091093DE098FE1E7
:103B20008093E00969EB71E08AED99E00E940F0F44
:103B3000CE0101960E94860E898160E872E083368C
:103B400041F469EC71E08AED99E00E940F0F6BED92
:103B500071E08AED99E00E940F0FE0910D01F0E015
:103B6000EA50FE4F649170E021E045E089E390E087
:103B70000E941F0C6FCF69EE71E08AED99E00E9400
:103B80000F0F80910F01811188C040E052E06CE07E
:103B900070E087E590E00E94EE0B4BEF51E06CE0A7
:103BA00070E082E790E00E94EE0B0CE510E021E06F
:103BB00047E06BE070E0C8010E941F0C0F5F1F4FD1
:103BC00000371105A1F780E68093DF098093DE09B5
:103BD0008BE08093E0091092E1096091D709709120
:103BE000D8098AED99E00E94F60E81E08093E10900
:103BF0008CE38093DF098093DE0983E18093E00901
:103C000065EF71E08AED99E00E940F0F80910F013E
:103C1000813009F051C040E052E064E170E087E596
:103C200090E00E94EE0B4BEF51E064E170E089E61A
:103C300090E00E94EE0B0CE510E021E047E063E12C
:103C400070E0C8010E941F0C0F5F1F4F073611055F
:103C5000A1F780E68093DF098093DE0983E18093FA
:103C6000E0091092E1098091D90990E001960E9443
:103C7000ED0E81E08093E1098CE38093DF0980936E
:103C8000DE098FE18093E0096DEF71E08AED99E044
:103C90000E940F0FE0910E0162CF6091D7097091E1
:103CA000D8098AED99E00E94F60E61EF71E08AED85
:103CB00099E00E940F0F99CF8091D90990E0019669
:103CC0000E94ED0ED9CF6AE172E08AED99E00E9480
:103CD0000F0F6CE272E08AED99E00E940F0F6EE325
:103CE00072E08AED99E00E940F0F6CE472E08AEDB9
:103CF00099E00E940F0F6CE572E08AED99E00E9456
:103D00000F0F6EE672E08AED99E00E940F0FA2CECF
:103D100063E872E0F8CF8F929F92AF92BF92CF92FA
:103D2000DF92EF92FF92CF93DF93EC01688179816C
:103D30008A819B81611571058105910521F464E2F9
:103D400079ED8BE597E02DE133EF41E050E00E9403
:103D5000451F49015A019B01AC01A7EAB1E40E9449
:103D6000641F6B017C01ACEEB4EFA50194010E94CD
:103D7000721FC60ED71EE81EF91EF7FE06C081E0B0
:103D8000C81AD108E10880E8F80AC882D982EA8214
:103D9000FB82C701B6019F77DF91CF91FF90EF9033
:103DA000DF90CF90BF90AF909F908F9008958F92AB
:103DB0009F92AF92BF92CF92DF92EF92FF9260916B
:103DC0001001709111018091120190911301611500
:103DD00071058105910521F464E279ED8BE597E0A9
:103DE0002DE133EF41E050E00E94451F49015A01A7
:103DF0009B01AC01A7EAB1E40E94641F6B017C0146
:103E0000ACEEB4EFA50194010E94721FC60ED71E3E
:103E1000E81EF91EF7FE06C081E0C81AD108E108C5
:103E200080E8F80AC0921001D0921101E0921201CC
:103E3000F0921301C701B6019F77FF90EF90DF90DA
:103E4000CF90BF90AF909F908F9008956093100196
:103E50007093110180931201909313010895F999C1
:103E6000FECF92BD81BDF89A992780B50895262F7F
:103E7000F999FECF1FBA92BD81BD20BD0FB6F8944F
:103E8000FA9AF99A0FBE01960895052E97FB1EF433
:103E900000940E945C1F57FD07D00E94771F07FC0B
:103EA00003D04EF40C945C1F5095409530952195AD
:103EB0003F4F4F4F5F4F0895909580957095619556
:103EC0007F4F8F4F9F4F08950E94991FA59F900D80
:103ED000B49F900DA49F800D911D11240895B7FFEC
:103EE0000C94641F0E94641F821B930B0895A1E22F
:103EF0001A2EAA1BBB1BFD010DC0AA1FBB1FEE1F64
:103F0000FF1FA217B307E407F50720F0A21BB30BAE
:103F1000E40BF50B661F771F881F991F1A9469F72A
:103F200060957095809590959B01AC01BD01CF0186
:103F30000895A29FB001B39FC001A39F700D811D82
:103F40001124911DB29F700D811D1124911D0895A2
:103F5000991B79E004C0991F961708F0961B881FDB
:103F60007A95C9F780950895AA1BBB1B51E107C03C
:103F7000AA1FBB1FA617B70710F0A61BB70B881FF9
:103F8000991F5A95A9F780959095BC01CD01089588
:103F9000EE0FFF1F0590F491E02D0994F894FFCFE8
:103FA000FFFFFFFF00E10000000000000000000232
:103FB0000100000000C18081000000000000006FCF
:103FC000084E0990088508D6089408B20800000039
:103FD00000760C4208D70CD60C00000000750C0DC2
:103FE0000A0031205F5F5F5F5F5F5F5F5F5F5F5F02
:103FF0005F5F5F5F5F20002C00636F6E73742075DE
:10400000696E7431365F742062656570426F785BEB
:104010005D2050524F474D454D203D207B002C20C8
:1040200000544F4E45535F454E44207D3B00424572
:104030004550424F5800506C61792066726F6D2078
:1040400073746172740A00506C61792066726F6DCE
:1040500020637572736F720A005361766520746F06
:1040600020454550524F4D0A004C6F6164206672E6
:104070006F6D20454550524F4D0A00436C6561728B
:1040800020454550524F4D0A0054656D706F3A20DF
:1040900000206D730052616E67653A2000436C65C5
:1040A00061722054756E650A4578706F7274207461
:1040B0006F2053657269616C0A00412B4C202053BC
:1040C0006872696E6B206E6F74650A00412B522016
:1040D00020457874656E64206E6F74650A00412B0C
:1040E0005520204D6F76652075700A00412B4420C5
:1040F000204D6F766520646F776E0A00422B4C204E
:104100002044656C657465206E6F74650A00422BEF
:10411000522020496E736572742061206E6F746541
:104120000A0A00546F20696E636C75646520612013
:10413000726573740A6E6F74652C20757365204107
:104140002B4C20746F0A736872696E6B2061206E4D
:104150006F726D616C0A6E6F746520646F776E208C
:10416000746F207A65726F0A6C656E67746820746C
:104170006F20746F67676C650A6265747765656E3A
:0A418000206D6F6465732E0030009F
:00000001FF
